S028000053445F4D4D435F626F6F746C6F616465725F4558414D504C455F4553453531362E737265635C
S1130000F02900202D3100002931000029310000A1
S113001000000000000000000000000000000000DC
S11300200000000000000000000000002931000072
S11300300000000000000000293100002931000008
S11300402931000029310000293100002931000044
S11300502931000029310000293100002931000034
S1130060293100001D1C00002D1C00003D1C000057
S11300704D1C00005D1C00006D1C000029310000B7
S11300802931000029310000293100002931000004
S113009029310000000000000000000029310000A8
S11300A029310000293100002931000029310000E4
S11300B00000000010B5064C2378002B07D1054B37
S11300C0002B02D0044800E000BF0123237010BDC0
S11300D07400002000000000585E0000084B10B5BA
S11300E0002B03D00749084800E000BF0748036815
S11300F0002B00D110BD064B002BFBD09847F9E72D
S11301000000000078000020585E0000585E0000E7
S113011000000000F0B583B001AC01256570002734
S1130120A770257021001720064EB04780221204C4
S1130130054B9A612770657021003720B04703B0E2
S1130140F0BDC0463D1600000044004110B5040057
S1130150037C002B05D08368581CE168074B984743
S1130160A1606368581CE168044B98476160A36808
S1130170591A4A424A41227410BDC046AD5000008B
S113018070B505000C001420044B98470560C4604A
S1130190002343608360037470BDC0463D55000076
S11301A010B5036842689954014B984710BDC04686
S11301B04D010000027C0023002A05D143688068B9
S11301C01B1A58424341DBB21800704770B5040053
S11301D00D000A4B984700280DD12368A2689B5C48
S11301E02B7000232374A368581CE168044B9847C0
S11301F0A160002070BD01204042FBE7B501000072
S1130200AD50000010B5064B18680649064B9847D8
S1130210431C04D0012203490448054B984710BDF0
S1130220C0090020BC090020CD010000800100208D
S1130230A527000030B591B08025ED00290036488F
S1130240364CA047364B186029003648A047364B39
S113025018608023DB05009300230193FF22694685
S11302600A8100228B72CB72012124206C46215416
S11302700130215425316354013163540A9305310B
S113028063540131635405932382E3762276227703
S113029062761323A3766277E1235B020893C42377
S11302A09B03039301235B420C930D931F4B0E930B
S11302B01F4B0F931F4D204C6A4620492800A0472E
S11302C00028F9D11B4D2C6820001D4B98471F2393
S11302D018401E3B83401B4A13602A68D369002BD5
S11302E0FCD12368022213432360124C00221649D6
S11302F02000164DA847012215492000A8473122A5
S1130300A35C03210B43A354303A12492000124B3F
S1130310984711B030BDC046BC05002081010000E3
S1130320B4010020BC010020C009002003002A0001
S113033003002B0080010020BD23000000180042B0
S1130340ED1B000000E100E0050200008D27000025
S113035009040000B8010020C527000070B50A4D4B
S11303602C682000094B98471F2318401E3B8340EC
S1130370802207498B502A68D369002BFCD123685B
S113038002229343236070BD80010020ED1B000016
S113039000E100E0F0B5C64600B5050000240028E1
S11303A012D0114E114F124B984603E0295D386864
S11303B0C04701342800B0478442F7D301210D48D7
S11303C00D4B9847002802D004BC9046F0BD0B4C5E
S11303D0064B186821000A4B984701222100054862
S11303E0084B9847F0E7C04641560000C00900207A
S11303F0A101000080010020E5270000BC090020C5
S1130400CD010000A527000010B582B00D4C2000DE
S11304100D4B98472378082B0CD00A4C21780B4BB2
S113042018680B4B9847012221000A480A4B984749
S113043002B010BD01A818330370183B4370024B7F
S11304409847EAE7B801002095030000B4010020B2
S1130450A101000080010020C52700000EB403B0F4
S11304607047000010B5064B19688B7F5A1E9341E4
S1130470DBB24A7B096803480078034CA04710BDEF
S113048090000020B80000202111000010B50423C2
S1130490002801D0180010BD0E4B9B7A033B012BA2
S11304A00DD900220C4B1A700A4C0C4B1C600C4BDF
S11304B09847A37A023B58424341DBB2EAE7054B33
S11304C002229A72074A1A6001225A7300229A770A
S11304D0E7E7C04694000020B80000209000002008
S11304E065040000801A0600F8B5094D094F0A4E4C
S11304F000210A48B847041E07D0B047FF2303422F
S113050003D0013D002DF3D100242000F8BDC046E6
S1130510410D0300651300007D1300000D1B000056
S113052010B582B00C4B1B68198909040123009390
S113053010220A480A4CA047002801D102B010BD7D
S1130540054B18680E300121064B98470028F5D05A
S1130550054B9847F2E7C0469000002009110800B7
S1130560D5110000011400008D14000010B5044BD7
S11305701B78002B00D010BD0020024B9847FAE7EF
S1130580B80000207511000010B50422034B9A72C4
S1130590FB32034B1A70034B984710BD94000020A4
S11305A0B800002021100000F0B5C64600B588B0A0
S11305B0CB4B98470400012806D0CA4B984720002B
S11305C008B004BC9046F0BDC74B1B680122DA7228
S11305D000221A731A81C54B9847002188204001D4
S11305E0C34B9847002807D1BF4B1B6803229A725C
S11305F0BC4B98470324E2E7D5214900BD48BC4BD6
S113060098470026002825D1B74B1B68DB7ADB0707
S113061000D5EBE1B44B1B68DA7A09231340012BB4
S11306200FD180218900B448B14B98470028DBD012
S1130630AD4B1B68DB7ADB0703D5B04B984700282A
S1130640D2D0AF4B9847A84B1B6800229A72A54B97
S11306509847B4E7AB4B9847431C00D1C4E100056D
S1130660000DD5235B0001369842BDD1CCE70021B3
S1130670A5489F4B9847002819D19B4B1B68022221
S1130680DA72002188204001994B98470028ABD0AA
S11306909E4D974F9B4E00219D48B8470028A3D0FC
S11306A0B047C3077DD5013D002DF4D19CE7954BA0
S11306B09847430005D58C4B1A68D37A08210B431D
S11306C0D372002193488A4B984700288CD0864BDC
S11306D01B68DB7ADA0700D4A4E18F4B9847002823
S11306E082D0814B1A68537C0721194089008B48BA
S11306F00858FA21890041435B061B0F9B00884878
S11307001B584B431360937B9B0900D03CE1917DC4
S11307108911537D9B00107D800203430B43107E9F
S1130720C011D17D490008431B051B0D013307216E
S1130730014002318B40D07C0F2101408B409B0A49
S11307405360118909047748694B9847002800D100
S11307504AE701230093082200217348734DA847F8
S1130760002800D140E7012106A8714B98470028D2
S113077000D139E76F4B9847002800D134E706AB26
S11307801B780F221340012B00D119E1002B00D15B
S113079009E1022B00D118E1534B1B6810221A7394
S11307A005E100215848524B9847002800D11BE727
S11307B0544B9847C023DB0518408023DB0598423F
S11307C005D1494B1A68D17A08230B43D37200210F
S11307D05048474B9847002800D105E74E4B9847AF
S11307E0002800D100E7404B1A68937B9B061B0F3F
S11307F0022B00D1A8E007D9032B00D1A7E0042BDA
S113080004D14023137303E0012B66D01223137326
S1130810537C5906090F8900072003409B003F4879
S11308201858FA239B004343434809584B43136029
S1130830917D8911537D9B00107D800203430B43FE
S11308401B051B0D3D498B420FD0107EC011D17D7D
S11308504900014301330720014002318B40D17C20
S1130860083001408B409B0A5360137B3F2B7BD99C
S11308700021009101238022920031482B4DA8478A
S1130880002800D1B0E600252E4E05A8B047002868
S113089000D1A9E60135ADB2322DF6D1124B19685B
S11308A08A7D92114B7D9B00097D89020B43134382
S11308B01B051B0D214A934254D1224E06A8B04772
S11308C0002800D190E60135ADB2352DF6D9064B9E
S11308D01A68069B5B08536044E01423137397E77C
S11308E08D0400006D050000900000209D110000A3
S11308F0651300000855000010110000E904000011
S1130900650400007D1300003A050000EF1B0000A1
S1130910011100003B110000210500009456000065
S1130920B05600003711000033110800D511000043
S1130930011400008D14000054560000FF0F000045
S113094008110800891300002223137360E7302381
S113095013735DE706A8364B9847002800D143E699
S11309600135ADB27F2DF5D9802189003148324B54
S11309709847002800D137E6304B9847002800D12B
S113098032E62F4B98475EE6D07D937D1B02517D66
S113099009040B4303439B025B08802189008C46B6
S11309A063445360CDE6274B1B6810221A73254B12
S11309B01B68DB7A09221340012B00D038E630E6AD
S11309C0204B1B681A221A73F1E706AB9B78DB09EC
S11309D0012B04D11B4B1B6830221A73E7E7194B18
S11309E01B6820221A73E2E700260DE6731E9E415F
S11309F0B3070393144D104FB846144E0021144806
S1130A00B847002800D138E603991248C0470028A7
S1130A1000D132E6B047C30700D428E6013D002DDB
S1130A20ECD12AE609221340012B00D009E6F8E5AF
S1130A30891300001011000065130000E904000090
S1130A406504000090000020EF1B00007D130000EF
S1130A50371100002911000010B5064B98470023F8
S1130A60002801D0180010BD034B9847034B1B68A6
S1130A70DB7AF7E78D0400006D050000900000208C
S1130A8010B5064B98470023002801D0180010BD6C
S1130A90034B9847034B1B685B68F7E78D04000022
S1130AA06D050000900000200020704770B582B0F2
S1130AB00E001500164B9847041E02D0200002B009
S1130AC070BD144B9847002817D0012D19D912482E
S1130AD0124B1B68DB7A1B0700D4760201230093B8
S1130AE02B008022920031000D4EB04700280AD01E
S1130AF00C4B1D800C4B1D80E0E70C4B98470534D4
S1130B00DCE70B48E4E7094B98470524D6E7C046E1
S1130B108D040000E9040000121110009000002070
S1130B20D5110000B4000020B60000206D050000BF
S1130B301111080010B50C00074B9847002804D188
S1130B400022064B1A80053010BD044A13881C1B72
S1130B5014800020F8E7C04601140000B40000200F
S1130B6010B50400144B98470523002801D1180040
S1130B7010BD002C10D00022104B1A80104B1B8883
S1130B80012B0FD000210F480F4B984700280DD0A0
S1130B900E4B98470023EAE7084B1A880023002AE3
S1130BA0ECD0E4E7094B98470023E0E7002105482F
S1130BB0054B9847ECE7C0468D140000B4000020B4
S1130BC0B60000200C310000651300006D05000024
S1130BD070B582B00E001500114B9847041E16D153
S1130BE0012D17D90F48104B1B68DB7A1B0700D463
S1130BF07602012300932B008022920031000B4ED9
S1130C00B047002808D00A4B1D800A4B1D802000E5
S1130C1002B070BD0848E6E7084B98470524F6E79C
S1130C208D0400001991100090000020D5110000DF
S1130C30B4000020B6000020189108006D050000E3
S1130C4010B50C00074B9847002804D10022064B2E
S1130C501A80053010BD044A13881C1B1480002020
S1130C60F8E7C04691140000B400002010B5040059
S1130C700E4B98470523002801D1180010BD002C05
S1130C800AD000220A4B1A800A4B1B88012B09D078
S1130C90094B98470023F0E7054B1A880023002AE4
S1130CA0F2D0EAE7044B98470023E6E71115000069
S1130CB0B4000020B60000206D05000010B504004B
S1130CC00F4B9847012819D0002803D0022810D0D0
S1130CD0012010BD0B4B1B5D0220002BF9D120001D
S1130CE0094B9847030003201840434258414000F1
S1130CF0EFE70022034B1A550220EAE70320E8E756
S1130D00A9050000BC000020590A000010B500200D
S1130D10014B984710BDC046BD0C000070B50400DF
S1130D200D00044B98474000013828602000024B16
S1130D30984770BD810A0000BD0C000010B5010089
S1130D400020014B984710BD1D0D000010B5002078
S1130D50014B984710BDC046A90A000010B5140005
S1130D6001220C4B9847002804D0023843425841D2
S1130D70013010BD01212000074B984703000120DA
S1130D80002BF6D10020054B9847431E9841C0B272
S1130D90EFE7C046AD0A0000350B0000610B000010
S1130DA010B50A0001000020014B984710BDC04651
S1130DB05D0D000010B5140001220C4B984700286B
S1130DC004D0023843425841013010BD01212000B3
S1130DD0074B984703000120002BF6D10020054B58
S1130DE09847431E9841C0B2EFE7C046D10B0000BC
S1130DF0410C00006D0C000010B50A000100002039
S1130E00014B984710BDC046B50D000000B583B036
S1130E106B46D91DFF230B7001220B480B4B9847DF
S1130E200B4B1B88012B0AD0FC226B469A710122C2
S1130E306B46991D0448054B984703B000BDFE223C
S1130E406B469A71F3E7C046C000002021210000E0
S1130E5004010020F0B583B06B46DC1DFF23237032
S1130E60124E012221003000114DA847FF23012218
S1130E7021003000A847FF23012221003000A847A9
S1130E800C4C6B46DD1D094E094F2B78FF2B09D006
S1130E90FF23012229003000B847013C002CF4D183
S1130EA0002000E0012003B0F0BDC046C0000020D7
S1130EB0591F0000400D030070B582B0144B1C880C
S1130EC0012C23D0134B1988134B1868134B9847E4
S1130ED00123844202D9180002B070BD6B46DC1DA8
S1130EE0FF2323700E4E0122210030000D4DA84730
S1130EF0FD232370012221003000A8470A4B9847A4
S1130F00031EE8D10521094A1170E4E70123E2E751
S1130F1004010020FC0000200C010020A14F00006F
S1130F20C000002021210000550E00000301002014
S1130F30F0B583B000226B46DA71144C6B46DD1DAC
S1130F40134E144FFF23012229003000B8472B7899
S1130F500F22190091430A1E09D0FE2B13D0013C25
S1130F60002CEFD104220C4B1A7000200CE05B071C
S1130F7004D00732084B1A70002005E00B22064B00
S1130F801A70002000E0012003B0F0BD20A107008A
S1130F90C0000020591F00000301002030B583B0B9
S1130FA001A901235B420B80144D02222800144B3B
S1130FB098476B46DC1DFF23012221002800114DB8
S1130FC0A847227811231340012B05D001220E4B90
S1130FD01A70002003B030BD1E231A40042A0BD01F
S1130FE00A2A04D1023A084B1A700020F2E70A22B6
S1130FF0054B1A700020EDE70120EBE7C00000204C
S113100021210000591F00000301002010B50248EF
S1131010024B984710BDC046C00000207D1C000054
S113102070B590B000232D4A137002AC01252570D1
S11310300393049323746374A574E57423752422C1
S1131040A354183A002108A8254B984780235B0233
S1131050E360244BA362244BE362244B2363244BBD
S11310606363244BA361244E220024493000244BA3
S1131070984734682000234B98471F231840854025
S1131080214B1D603268D369002BFCD123680222F6
S1131090134323601D4A0023537093701C4908783E
S11310A010701C4C20706370A37001A901224A7057
S11310B08B700A70184B98472278D10900230029B5
S11310C004D15309DB0115498C4663441F211140A7
S11310D001228A409A6110B070BDC046030100200D
S11310E0515500000200100002001100020012001D
S11310F002001300801A0600C0000020000C004209
S1131100811D0000ED1B000000E100E01001002043
S11311100C000020000100203D16000000440041A6
S1131120F8B5070000220D4B1A700C000C4B9942C5
S113113000D91C000B4D0C4E01E0E308E41A210019
S11311402800B0471728F8D07900CF190749C919E2
S113115001220448064B9847F8BDC046030100200D
S113116080969800C0000020C91C000000010020E7
S11311702D20000010B50022044B1A7041000818FD
S1131180034909180348044B984710BD0301002084
S113119000010020C00000202D20000070B582B0A6
S11311A0FF226B46DA710022074B1A700A24074E9D
S11311B0074D01226B46D91D3000A847013CE4B21B
S11311C0002CF6D102B070BD03010020C000002045
S11311D021210000F0B5C64600B586B080460092D5
S11311E00193FF220F2302A8844663441A7000224D
S11311F0534B1A7004AB3F32404602404020024336
S11312001A700A0E5A700A0C9A700A0ADA70197166
S11312100027002304A90822092411E07600F6B26D
S11312200138C0B2002808D05B00DBB21D00754055
S11312302D06F3D56340DBB2F0E70137052F02D06A
S11312407E5C1000F0E75B000122134304AC637181
S11312503C4E01220F2102AB9C46614430003A4FC0
S1131260B847062221003000B84702ABD91DFF233E
S11312700B7001223000354EB047072402ABDE1D4F
S1131280304F324DFF23012231003800A847337814
S11312905AB2002A0BDA013CE4B2002CF2D1022249
S11312A0274B1A70002006B004BC9046F0BD284AB3
S11312B013601A071AD45A071DD4012293431FD16D
S11312C043469B0420D443469B0525D443465B05F3
S11312D02BD4204B6A4612881A801F4B6A46928888
S11312E01A8000221D4B1A600120DCE70622144BF1
S11312F01A700020D7E70922114B1A700020D2E798
S11313000F4B1A700020CEE7154B98470028DAD10E
S113131003220B4B1A70C6E70D4900230B60FF3301
S113132001220848094EB047D0E7094EFF230422A2
S113133031000448054FB84733681BBA3360C8E727
S113134003010020C000002021210000591F0000DB
S113135008010020FC000020040100200C010020F2
S1131360550E000010B582B0002300930022024CF9
S1131370A04702B010BDC046D5110000014B18684B
S11313807047C0460801002010B584B001900022C7
S1131390144B1A70144B1988144B1868144B984743
S11313A0002903D1134B9847002810D0FF230422AF
S11313B001A91148114CA0470C4B1A68101D186064
S11313C0094B19880A4B98470120002901D004B021
S11313D010BDFF23022203A90748084CA04701209F
S11313E0F5E7C04603010020FC0000200C010020AA
S11313F0AD500000310F0000C0000020591F000054
S1131400F0B5DE4657464646C0B582B08346002254
S1131410174B1A704C1EA4B2002926D00026154B77
S11314209A46154FD0478046002817D03A885B4625
S11314309919FF231148124DA8473B88F618114A01
S113144011688C4663441360FF23022201A90B48F0
S1131450A847013CA4B20C4B9C42E3D1404602B0E5
S11314601CBC90469A46A346F0BD01239846F5E776
S113147003010020310F0000FC000020C000002008
S1131480591F00000C010020FFFF000001207047DD
S1131490F0B5C64600B580460022154B1A700025EB
S11314A0144F154E00E021004C1EA4B200291BD09D
S11314B0B8473288434659191048114B9847338826
S11314C0ED18104A11688C46634413600E4B98471C
S11314D000280AD0002CE6D00C4B98470028E2D113
S11314E00522034B1A7000E0012004BC9046F0BDB5
S11314F0030100200D0E0000FC000020C0000020AD
S1131500212100000C0100209D0F0000550E000059
S113151010B5054B9847002803D10522034B1A70D8
S113152010BD034B9847FBE7550E00000301002054
S1131530B90E00007047000010B50123002801D047
S1131540180010BD014B98470300F9E70D0D00008A
S113155010B50123002801D0180010BD0800024B6B
S113156098470300F8E7C0463D0D00004342584148
S1131570C0B2704710B50123002801D0180010BD77
S1131580014B98470300F9E74D0D000010B50C001E
S11315900123002801D0180010BD11002000024BC7
S11315A098470300F7E7C046A10D000010B50C00F2
S11315B00123002801D0180010BD11002000024BA7
S11315C098470300F7E7C046F90D00000C4B1B6871
S11315D0002B06D1EFF31083002B07D00022094B18
S11315E01A70074A136801331360704772B6BFF369
S11315F05F8F0022044B1A700132024B1A70F0E71D
S113160014010020180100200D000020084B1A6866
S1131610013A1A601B68002B09D1064B1B78002B7A
S113162005D00122044B1A70BFF35F8F62B6704776
S113163014010020180100200D00002000B583B023
S113164001AB80221A700A785A704A789A708A78A4
S1131650DA701900014B984703B000BDC93000008F
S11316600268937A5BB2002BFBDB138802210B43E5
S1131670138070470268937A5BB2002BFBDBC123B3
S113168093711372138802218B43138070470000F7
S113169070B504000568064B98472268937A5BB2DC
S11316A0002BFBDB2B88012213432B8070BDC0462B
S11316B07516000010B5CB88C2889A1A92064B7929
S11316C09B050C79640423438C782403234313433C
S11316D00279002A05D1CA78002A02D08022520257
S11316E01343487880010A781043184310BD10B59D
S11316F08B0EC4881B19D3808B011B0F53718B0273
S1131700DB0E13710379002B0CD10B041B0F9370A8
S1131710CB03DB0FD37088093F2318405070194066
S1131720117010BDCB03DB0E9370F4E710B50A0003
S113173003684179002906D0598849040BD51969F1
S11317400A4B984710BD0A4959800468A17A49B2E6
S11317500029FBDBF3E75988C02424022143598084
S11317600468A17A49B20029FBDBE8E7EF16000020
S11317700080FFFF70B50D0014001723012A01D962
S1131780180070BD0668064B9847B37A5BB2002B0D
S1131790FBDBE4003419A0612B7A23770023EFE705
S11317A0B516000030B583B00500140001601C4A72
S11317B0936920210B43936101A902230B70042038
S11317C0184B98470420184B98472800174B984704
S11317D023792B71E3786B71E388EB80144B1D60E4
S11317E02A6823882179002917D008210B43A1787E
S11317F0002901D080210B431380E378002B04D00F
S113180053888021C9010B435380210008310022F1
S11318102800084B984703B030BD48210B43E6E746
S113182000040040D12F0000452F00009116000055
S1131830C409002075170000F0B5DE4657464E4631
S11318404546E0B587B08046049116001F0000228B
S1131850002300218B463F2401202100009601979C
S11318605C4603944446059413E02024641A05005E
S1131870E540A84614E0009C019D121BAB415C4668
S11318804D462C43A346039C45462C4303940139FF
S113189025D3202464420C19E7D40500A540A846AA
S11318A004008C40A14692185B4114001D00059E63
S11318B04F463E40B446049E47463E40B2466646C6
S11318C057463E4303D00600264332002B00009CBB
S11318D0019D9D42DBD8CED19442D8D8CBE7039B5F
S11318E05846190007B03CBC90469946A246AB4600
S11318F0F0BD10B5490840230024814202D21800EB
S113190010BD1C00091A631C9BB28842F9D94023FC
S1131910FF2CF4D814800023F1E70000F0B583B065
S11319200F00160008AA117804004C434022BC4260
S113193002D9100003B0F0BD002B14D1020008003E
S11319400021194CA04701003A0000230020174C45
S1131950A04700220123121A8B41120C1B041A43C4
S113196032800022E5E70022012BF9D10A0000238E
S113197000210D4CA04702000B0000920193380097
S113198000210A4CA047050080239B014022984275
S1131990CFD8790FF800009A019BA047EA00821A79
S11319A0D2B252032A43DBE7CD52000039180000BB
S11319B010B582B004000E4B1B78002B07D0002911
S11319C005D10B4B5B78834210D01D200CE001A99C
S11319D00C701320074B98471320074B9847044B70
S11319E05C7001221A70002002B010BD0020FBE7D9
S11319F01C010020D12F0000452F0000404B9842CD
S1131A0031D00AD93F4B98424DD03F4B98425AD0DF
S1131A103E4B984237D0002070473D4B98420CD043
S1131A203C4B9842F7D1012917D000295DD00229F7
S1131A3015D0032915D00020EEE7012907D000298D
S1131A4051D0022905D0032905D00020E4E732480B
S1131A50E2E73248E0E73248DEE73248DCE7324882
S1131A60DAE73248D8E7012907D000293FD0022914
S1131A7005D0032905D00020CEE72D48CCE72D481A
S1131A80CAE72D48C8E7012907D0002931D0022927
S1131A9005D0032905D00020BEE72848BCE7284824
S1131AA0BAE72848B8E7012907D0002923D002293A
S1131AB005D0032905D00020AEE72348ACE723482E
S1131AC0AAE72348A8E7012907D0002915D002294D
S1131AD005D0032905D000209EE71E489CE71E4838
S1131AE09AE71E4898E71E4896E7032094E71D48A6
S1131AF092E71D4890E71D488EE71D488CE7C046D5
S1131B000010004200180042001C00420014004271
S1131B1000080042000C0042030005000300060018
S1131B20030007000300010003001E0003001F0060
S1131B300300090003000A0003000B000300110066
S1131B40030012000300130003000D0003000E0045
S1131B5003000F000300170003001800030019001E
S1131B6003000400030008000300100003000C003D
S1131B700300160030B587B00B4B6A4632CB32C235
S1131B8032CB32C2009B83420BD001239A006946B8
S1131B905258824206D00133062BF7D1002007B0F9
S1131BA030BD0023D8B2FAE7F056000070470000B9
S1131BB0F0B50A4B1B78002B0CD1094F094E0A4D86
S1131BC00024DE515A1914600433182BF9D1012270
S1131BD0024B1A708000024BC150F0BD1E01002060
S1131BE020010020AD1B0000C809002000B583B00F
S1131BF009236A4613700133537001339370013320
S1131C00D3700133137101335371034B98476B46FF
S1131C10185603B000BDC046751B000010B5024B3A
S1131C201B680020984710BD2001002010B5024B0E
S1131C305B680120984710BD2001002010B5024BBD
S1131C409B680220984710BD2001002010B5024B6C
S1131C50DB680320984710BD2001002010B5024B1B
S1131C601B690420984710BD2001002010B5024BC9
S1131C705B690520984710BD2001002070B5050060
S1131C80046820000E4B98471F2318401E3B8340D6
S1131C9080220C498B502A68D369002BFCD18F33E6
S1131CA02375237623680222934323602A68D36929
S1131CB0002BFCD1236801221343236070BDC0466E
S1131CC0ED1B000000E100E070B582B005000C00DF
S1131CD000226B46DA8006683000244B98471F23A5
S1131CE018401E3B8340802221498B502A68D369C7
S1131CF0002BFCD18F333375337633680222934340
S1131D0033602868C369002BFCD11A4B9847143000
S1131D10C0B2194B984701006B469A1D2000174B1F
S1131D209847041E03D01724200002B070BD6B46F0
S1131D3006331B7833732E68F369002BFCD1300013
S1131D400A4B98471F2318401E3B8340084A1360E0
S1131D502A68D369002BFCD1336802221343336011
S1131D602A68D369002BFCD1DEE7C046ED1B0000D6
S1131D7000E100E0751B0000ED2F0000F3180000E7
S1131D80F0B58BB005000C00160029600B681C2010
S1131D909B0701D50BB0F0BD0B681738DB07F9D4EE
S1131DA00800604B9847604A116A871C0123BB40B6
S1131DB00B43136209A92427F35D0B701430C3B2DB
S1131DC001931800594B98470198594B9847F05D77
S1131DD00021584B98473378012B38D02B000C3313
S1131DE029002831002204C38B42FCD10023EB627A
S1131DF0AB620024AB862B863633EC540133EC54AF
S1131E000133EC54353B6B722C712868454B984771
S1131E1007004949494B9847BF00494BFD502F687B
S1131E2004AB80221A705C707F3A9A70DC7033784D
S1131E30002B02D1002204AB9A70B36A0593F36AB3
S1131E400693336B0793736B089300240BE02368AA
S1131E500C2213432360C1E738003A4B98470AE049
S1131E600134042C10D0E1B2A30002AA0C201218F1
S1131E70D0580028F0D0431CF2D004A90870000CFC
S1131E80C0B2314B9847EBE733786B71337CAB715D
S1131E90B37CEB71337D2B72002202ABDA80337892
S1131EA0012B28D07368B2681343F2681343317C62
S1131EB0727C002A03D1254A9278920701D58022A8
S1131EC01343B27C002A02D0802292021143F27C96
S1131ED0002A02D0802292001143327D002A02D0CF
S1131EE08022920111433A6813433B607B680B43A1
S1131EF07B6000204EE728680A4B98471430C0B234
S1131F00134B9847010002AB9A1DB069114B9847D7
S1131F1003001720002B00D03CE702AB06331B78EC
S1131F203B73BFE7751B000000040040D12F000085
S1131F30452F0000B1190000ED210000B11B000085
S1131F40C8090020FD190000C9300000002000412C
S1131F50ED2F0000F3180000F0B5D646474680B5D3
S1131F6083B03824055D333C052D02D01234002A99
S1131F7005D1200003B00CBC90469A46F0BDC4794C
S1131F80002C44D11C34F4E705682C7E3C42FCD080
S1131F902C7E3C421AD04446AC6217E08479012C72
S1131FA026D0AD6AECB2A446019C002C3AD1751C33
S1131FB0ADB264468C558479012C1ED02E00013AB2
S1131FC092B252451FD04479012CDDD005682C7E95
S1131FD01C42FCD02C7E1C4217D06C8BA4460024DF
S1131FE0019464461C42D9D06B831E240194D5E726
S1131FF0AC6AE405E40DA446D6E70236B6B26446FC
S1132000240A4C55DBE7019CB3E71024B1E7013AFD
S113201092B200260127DB05DB0D98460423024C0F
S1132020A246D0E7019CA4E7FFFF000010B5447965
S11320301523012C01D0180010BD047A0023002CB4
S1132040F9D1002A58D04B78002B44D003681B7E6A
S1132050DB0710D40A78D1090023002904D15309DD
S1132060DB012E498C4663441F21114001228A4022
S11320709A610523DFE70A78D4090023002C04D1F0
S11320805309DB01254CA44663441F241440012258
S1132090A2405A6103681A7ED20701D58A789A62EF
S11320A0C2790023002AC6D102680421137E0B42A0
S11320B0FCD0117E00234907BDD5538B5B0701D5A6
S11320C0042353838379012B02D0936A0023B2E75C
S11320D0936A0023AFE70A78D1090023002904D1C9
S11320E05309DB010D498C4663441F211140012231
S11320F08A405A6100239EE70A78D1090023002907
S113210004D15309DB0105498C4663441F21114066
S113211001228A409A6100238DE7C04600440041B1
S1132120F0B5DE4657464E464546E0B583B08A468E
S11321303823C45C333B052C02D01233002A4BD124
S1132140180003B03CBC90469946A246AB46F0BD8D
S11321500237BFB241465346595C09025B460B4302
S113216018E08379012B2AD0936A013EB6B2664502
S113217027D00268137E2342FCD07B1C9BB2984676
S11321805346DB5D9B4681790129E1D06946CB80CA
S1132190CB884746117E214202D0DB05DB0D9362DA
S11321A0C379002BE1D00268137E2B42FCD0137E4E
S11321B02B42DAD0538B2B42D3D05583D1E7936A89
S11321C0D3E742790023012ABAD1016801320B7E98
S11321D01342FCD00023B3E7013A96B2002701244E
S11321E00425014B9C46C4E7FFFF0000F8B58000BE
S11321F0704BC45826683723E75C3622A25C17402C
S1132200337EB57D1D40EB0702D56379012B1ED0CB
S11322106B0711D5738B5B075AD5637A012B08D0F2
S11322201E223823E254353B6372023333753B0775
S11322304AD4B36A04237383AB0703D56379012BB0
S113224000D197E06DB2002D00DAA9E0F8BD637A01
S1132250002B22D0637A002BDAD02168E26A13784B
S1132260DBB2501CE062A079012827D09BB2DB05C9
S1132270DB0D8B62A38E013B9BB2A386A38E9BB224
S1132280002BC5D101333375637A012BC0D1E379B7
S1132290002BBDD10233B375BAE7474B1B88B36239
S11322A0638E013B9BB26386638E9BB2002B01D18C
S11322B0013333756379012BCCD0A9E75078000240
S11322C003430232E262D2E72000A3699847B0E7F1
S11322D0637A012B28D023689B6ADB05DB0DDAB215
S11322E0A16A0A70A26A511CA162A179012934D0A1
S11322F0238E013B9BB22386238E9BB2002B00D0FE
S11323009AE700223833E254343B3375637A022B64
S113231029D0637A002B00D08EE7BB0700D48BE76B
S113232020002369984787E723689B6A638E013BF3
S11323309BB26386638E9BB2002B00D07CE7043390
S1132340337500223433E254353B6372FB0700D407
S113235072E72000E36898476EE71B0A5370A36A8C
S11323600133A362C4E77B0700D465E720006369F7
S1132370984761E7637A012B00D063E7E379002B88
S113238000D05FE7023333750133637200223533C3
S1132390E254FB0700D455E72000E368984751E76F
S11323A08023337533767B0600D44FE7636A2000BD
S11323B098474BE7C8090020E0090020F0B5DE4645
S11323C057464E464546E0B591B005000C00160050
S11323D029600800BC4B9847020023680520DB07EE
S11323E006D511B03CBC90469946A246AB46F0BD1A
S11323F0236817309B07F4D4B449086A971C012357
S1132400BB4003430B620FA92D27F35D0B701432FD
S1132410D3B202931800AE4B98470298AD4B98473D
S1132420F05D0021AC4B9847F37A6B712423F35C85
S1132430AB712523F35CEB71F37E2B72337F6B72EC
S11324402B6898461800A04B9847143000220E239E
S113245006A98C4663441A80328A02928023DB01E7
S11324609A4200D19EE00FD9C023DB01029A9A421E
S113247000D192E080231B029A4200D01FE1032383
S113248006930023079308E080239B019A4200D01F
S113249015E1102306930F3B079333680593F36804
S11324A0039373690493337E9B462623F35C9A4615
S11324B073689946002B00D1A0E080235B05994501
S11324C000D184E0737E002B02D0B37E4246937326
S11324D02A68029FD369002BFCD10E3306AA9446C6
S11324E063441B8842469381059B039A1343049AD1
S11324F013434A4613431F435B461B021F43534681
S11325005B071F432723F35C002B01D104331F43D4
S1132510737E9B02327F52021343727F1202134373
S11325202422B25C520413432522B25C12041343E6
S1132530B17AF27A114319433389FF2B00D181E038
S113254080225204174319432C23F35C002B03D13C
S1132550624B9B789B0701D580231F432A68D3696C
S1132560002BFCD1434659602A68D369002BFCD167
S113257043461F600EAB80221A7000225A70DA7034
S11325809A70336B0A93736B0B93B36B0C93F36B6B
S113259002930D9300270AAE63E008230693073BDA
S11325A007937AE733680593F36803937369049395
S11325B0337E9B462623F35C9A4673689946002B28
S11325C018D080235B05994501D0002025E02723FE
S11325D0F35C002B00D075E7336A1F00C0B2404B98
S11325E0984701000E2206AB9C46624438003D4BDE
S11325F0984712E008230693002307932723F35CEC
S1132600002B0ED0069B0093079B0E2206A98C4636
S11326106244B16A306A344FB847002800D0E0E61B
S113262050E7336A1F00C0B22D4B98470100069B48
S11326300093079B0E2206A88446624438002A4F62
S1132640B847EAE7F37E002B00D17DE78023DB0463
S11326501F4379E72000254B984707E00137042FF3
S11326600DD0F9B2BB0098590028F3D0431CF5D023
S11326700EA90870000CC0B21D4B9847EEE700236A
S1132680EB602B616B61AB61EB612B62AB626B62E4
S11326900022EB85AB853033EA540133EA5401332D
S11326A0EA540133EA542868074B98470400114957
S11326B0114B9847A400114BE550002091E61023DC
S11326C0069300230793E8E6751B0000000400400E
S11326D0D12F0000452F0000B11900000020004157
S11326E0ED2F0000F31800001D190000FD19000073
S11326F0C930000001280000B11B0000C8090020F7
S1132700F8B506000C00150007680A4B9847F38DCE
S11327109BB2002B03D0084B98470520F8BDF585E4
S1132720054B9847B46205223323F254323BBB7500
S11327300020F3E7CD1500000D160000F8B50400E5
S11327400D00160007680F4B9847A38D9BB2002B12
S113275003D00D4B98470520F8BDA6850A4B984732
S1132760656205223223E2542E3BBB75237A002B8B
S113277001D02023BB75637A0020002BECD0082302
S1132780BB75E9E7CD1500000D160000931C9B00F6
S1132790C31859603021012393401A00435C13434A
S11327A04354704710B51723002A01D1180010BDF7
S11327B0C4790533002CF9D0014B98470300F5E7A1
S11327C00127000010B51723002A01D1180010BDFD
S11327D084790533002CF9D0014B98470300F5E7C1
S11327E03D270000002903D0012905D0172002E06D
S11327F03223C05CC0B270473323C05CC0B2FAE776
S1132800F8B58000624BC5582C68E369002BFCD1F5
S1132810237EA67D1E403023EB5C3122AF5C1F403B
S1132820F30722D5EB8D9BB2002B1CD0AA6A137838
S1132830DBB2511CA962697901290ED09BB2DB0578
S1132840DB0D2385EB8D013B9BB2EB85002B0CD17B
S1132850013323750133A37507E0517809020B4353
S11328600232AA62EBE701232375B30706D50223DC
S1132870237500223133EA54FB071AD4730765D554
S1132880AB8D9BB2002B5FD0638BDBB21A0714D4E1
S11328903F221340002B34D09A0711D51A22322339
S11328A0EA54303B63837B0750D528006B69984713
S11328B04CE02800EB689847E0E737221340E9E74B
S11328C05A0705D51E223223EA542E3B6383EAE7D6
S11328D0DA0705D513223223EA54313B6383E2E756
S11328E0DA0605D542223223EA54223B6383DAE72F
S11328F020221A42D7D021323223EA54123B638376
S1132900D1E7238DDB05DB0DDAB2696A0A706A6AE6
S1132910511C69626979012910D0AB8D013B9BB2CE
S1132920AB85002B12D10433237500222E33EA54D5
S1132930BB070BD528002B69984707E01B0A537087
S11329406B6A01336B62E8E704232375F30604D54D
S1132950102323752376FB060ED4B30604D5202357
S1132960237523763B070BD4330704D5082323753B
S11329702376BB0608D4F8BD2800EB699847ECE73A
S11329802800AB699847EFE72B6A28009847F2E7DD
S1132990C809002010B5082803D880001C4B1B5818
S11329A09F46002032E01B4B18692FE01A4B1B6A2C
S11329B09B059B0F1948D84028E0164B586925E021
S11329C0144B1B6800209B0720D513491022CB68A9
S11329D01A42FCD00F4B1A6824231340042B01D055
S11329E00F4813E000200F4B98470A4B9B681B04C9
S11329F01B0C58430AE05023074AD35C00205B07B2
S1132A0004D5044BD86801E08020000210BDC04604
S1132A1008570000380100200008004000127A0026
S1132A20006CDC02ED2F000070B50C490B6A0478D1
S1132A30857840780122104080014026B343034347
S1132A402A40D201802083431343032222401202EE
S1132A500348034013430B6270BDC04600080040A6
S1132A60FFFCFFFFF0B5DE4657464E464546E0B54F
S1132A700100264B9B469B8A45780078424242419E
S1132A8091468878CA7894460A7990464E7B0F7BA3
S1132A908C7B8A681E494A6101214A46920091460C
S1132AA0042293434A46134342460A40D2009046C6
S1132AB0082293434246134362460A401201944655
S1132AC0102293436246134308404001202293435B
S1132AD003430F40BF01402083433B430E40F601B4
S1132AE0403083433343793805402D02094803407D
S1132AF02B4321400903084803400B435A46938261
S1132B003CBC90469946A246AB46F0BD0008004046
S1132B1038010020FFF8FFFFFFEFFFFF10B5037A35
S1132B209B061B0C42899205920D134318494B6076
S1132B308379C279134342888488224313434278B9
S1132B40D20113430B600378042B11D0202B0ED138
S1132B50037B9B06028A1343C28912040D490A406F
S1132B6013430B4A936011680B4B0B43136010BD66
S1132B70037B9B06028A1343C289120405490A4057
S1132B801343034A9360136804210B431360EEE775
S1132B90380100200000FF0324040000082803D8A3
S1132BA08000254B1B589F46172044E0234A136A94
S1132BB002210B43136200203DE0204A9369022165
S1132BC00B439361002036E01C4A138A02210B4315
S1132BD0138200202FE0194A938A02210B43938227
S1132BE0002028E016490B68022213430B60134BA4
S1132BF09A8419000E32CB681A42FCD0104A9168AC
S1132C000E4BD96252689A6200229A8419001032DB
S1132C10CB681A42FCD00A4B1B689BB2074A9384C8
S1132C20002008E0054944228B5C022003438B54B6
S1132C30002000E0002070472C57000000080040EE
S1132C4038010020F0B58FB0C222D200454B9A6003
S1132C50454A53681E218B431A390B4353600222A1
S1132C6001AB1A700024414DE0B201A9A847013418
S1132C70252CF9D10AA80023037083708022120244
S1132C808260C37001220271837306214170437311
S1132C900273374B98470520364B98473149022237
S1132CA0CB681A42FCD005AB0021002259809980E0
S1132CB09A71DA713F3159813B3919705A702E4B30
S1132CC01B689B0E3F2B4BD005A80372B723DB0078
S1132CD00382032303731C33C381284B984704A83E
S1132CE001258570002606704570254B98470620FF
S1132CF0204FB847234B984701AC02956670267263
S1132D00667205232370210001201F4B9847012080
S1132D101E4B9847257021000020144B9847002033
S1132D201B4B98470720B8470E49D022CB68134065
S1132D30D02BFBD1174A0023137253729372D372B0
S1132D4001A901224A604B704B7207330B700A725F
S1132D5000200D4B984700200C4B98470FB0F0BD56
S1132D60203BB1E70008004000400041D12F0000A3
S1132D70652A00009D2B0000246080001D2B0000AC
S1132D80292A0000992D0000BD2D0000752E000099
S1132D90452F000000040040064A936908210B43B4
S1132DA093610122044B1A7019000B781342FCD171
S1132DB07047C04600040040000C004070B5060097
S1132DC004000D782D0205434B78002B02D080239C
S1132DD0DB021D434B7A002B02D080231B031D43CF
S1132DE04868012810D9431E184234D1022830D92A
S1132DF00223002201325B009842FBD812023243C4
S1132E00140080235B031D430B7A002B02D0802324
S1132E109B031D43134A53785BB2002BFBDB124B1D
S1132E209847124B1E700F4A53785BB2002BFBDBA2
S1132E300C4B9C601A0053785BB2002BFBDB094AF5
S1132E405368802149020B401D435560084B984745
S1132E5070BD0022D2E70402344380239B021D4349
S1132E60D2E7C046000C0040CD150000080C00401D
S1132E700D16000010B504000B4A53785BB2002B0A
S1132E80FBDB0A4B98470A4B1C70074A53785BB22A
S1132E90002BFBDB044A516880235B020B43536025
S1132EA0044B984710BDC046000C0040CD150000EF
S1132EB0040C00400D16000070B504001A4A537843
S1132EC05BB2002BFBDB194B9847194B1C70164A5D
S1132ED053785BB2002BFBDB134E7068C004C00E4A
S1132EE0144B98470500124B1C707668F602F60FD7
S1132EF0114B1C700C4A53785BB2002BFBDB0A4B62
S1132F009C682402240C0D4B9847002E07D1012CF9
S1132F1007D9210028000A4B9847050001E0013435
S1132F20E540280070BDC046000C0040CD150000EF
S1132F30040C004095290000080C00400D16000008
S1132F40A14F000010B50400064B9847064B1C70B7
S1132F50064A53888021C9010B435380044B984788
S1132F6010BDC046CD150000020C0040000C00400E
S1132F700D16000010B504000F4B98470F4B1C7042
S1132F800F4A53881B05180F53880E490B40538072
S1132F9053880D490B40538011008022D2014B8885
S1132FA01342FCD106494A880302064802401343EF
S1132FB04B80064B984710BDCD150000020C004015
S1132FC0000C0040FFF0FFFFFFBFFFFF0D160000E5
S1132FD010B50C7824020443024B9847A4B2024B68
S1132FE05C8010BD752F0000000C004010B504007B
S1132FF0064B9847064B1C70064B5C882405240F2F
S1133000054B98472000054B984710BDCD1500008F
S1133010020C0040000C00400D160000B92E000008
S113302030B5D378002B35D11378802B29D01B06EB
S113303080246402234354780225AC4306D1947857
S1133040002C20D18024A402234341605478013C05
S1133050012C1CD90D042D0CA024E4052C431C4385
S113306084620D0CD02424062C431C438462D4783F
S1133070002C22D15B031CD59378012B1ED0416117
S113308017E00023D7E7C024E4022343DDE70D4C17
S11330902340DFE741600C04240CA023DB05234319
S11330A083620C0CD0231B0623438362D378002B4A
S11330B003D15378013B012B02D930BD8161F8E77C
S11330C08160FAE7FFFFFBFF10B50A00C109002386
S11330D0002904D14309DB0105498C4663441F24BC
S11330E02040012181401800024B984710BDC04682
S11330F000440041213000007047000010B5054B2A
S11331009847054B9847054B9847054B9847054BFF
S1133110984710BD452C000015010000F93000004F
S1133120F9300000F9300000FEE70000F8B52A4A43
S11331302A4B9A4211D01A00294B9A420DD2294A9D
S113314003339B1A9B0801339B0000222348224926
S11331508C58845004329A42FAD1234A234B9A421F
S11331600AD2D34321495B1803218B4304339B18B0
S1133170002102C29342FCD11D4AFF211D4B8B4307
S11331809360FD3990235B001B4AD1501B4AD378CE
S11331900325AB4302242343D370D3780C27BB43CA
S11331A008263343D370164B987B30229043202259
S11331B010439873997BB943314399739A7BAA431B
S11331C022439A730F4A536880210B4353600E4B7A
S11331D098470E4B9847FEE7585E00000000002019
S11331E0740000200400002074000020F009002076
S11331F000ED00E0000000000070004100500041BC
S11332000048004100400041F5540000914D000089
S11332100300064A1268002A04D0044A1068C3183E
S1133220136070470249014A1160F6E7500100201B
S1133230F029002030B587B0040001AAA0231B01A7
S1133240138000239370D370FA21C900D180012127
S113325011710420107253729372D37211735173EB
S1133260144BD38106231374134D14492800144BB3
S113327098472800134B98470120012C01D907B027
S113328030BD2000104B98470300032806D12000CE
S11332900D4B984703000120032BF0D0002B06D1DF
S11332A020000A4B9847431E98418000E7E701201D
S11332B0E5E7C046DE070000E409002000140040F2
S11332C0A5170000611600003915000075150000EF
S11332D010B5054B9847031E04D00320022B00D0E1
S11332E0023810BD0020FCE739150000F0B5DE46B9
S11332F04F464646C0B584B001900D0014001F002F
S1133300184B984706000120002E05D104B01CBCC0
S113331090469946A346F0BD03A90198124B9847DD
S1133320B14632007A431219039B013373430420DC
S11333309A42EBD8002F11D0730298467B1C9B460F
S113334001270A4E2A0021000198B047002807D11E
S113335001374C4445445F45F4D1D7E70020D5E715
S11333600120D3E76D150000511500008D150000F4
S1133370F0B5DE464F464646C0B584B001900D0018
S113338014001F00184B984706000120002E05D199
S113339004B01CBC90469946A346F0BD03A901980D
S11333A0124B9847B14632007A431219039B0133FA
S11333B0734304209A42EBD8002F11D0730298462D
S11333C07B1C9B4601270A4E2A0021000198B04726
S11333D0002807D101374C4445445F45F4D1D7E771
S11333E00020D5E70120D3E76D150000511500003A
S11333F0AD15000010B582B0140001290BD00029CE
S113340020D002290FD00420032902D10123136004
S1133410002002B010BD01A90E4B9847019B013357
S113342023600020F5E70C4B9847431EDBB2012BC9
S113343004D9031FFB2201201342EAD10023237085
S11334400020E6E7054B9847002801D00320E0E779
S11334500020DEE7511500006D150000391500004D
S113346000B583B069460F480F4B98476B465879AF
S113347040051B791B0418436B469B78DB021843F9
S11334806B465B785B0118436B461B785B081843FB
S11334906B46DB88054A944663445B06184303B0D5
S11334A000BDC046E40900202D17000044F8FFFFCA
S11334B010B5002A05D00023CC5CC45401339342D8
S11334C0FAD110BD002A05D0030082181970013307
S11334D09342FBD17047020002398369023B00200A
S11334E0994203D290784143906A081870470200C9
S11334F001000B3100204308C00103431078181861
S1133500C0B201328A42F6D17047000010B50028DB
S113351010D002780923002A01D1180010BDC288F6
S11335208A42FAD14078044B98470323C007C01756
S11335300340F2E70923F0E7D132000070B504003C
S11335400A0001003031407801231F4DA8470323AE
S1133550002801D0180070BD1C4BE35C1B021C4A00
S1133560A25C1A431B4912B202238A42F2D1673386
S1133570E35C1B066822A25C120413436622A25C6D
S113358013436722A25C120213431B021B0A124A52
S1133590934216D08523E35C1B068422A25C1204AA
S11335A013438222A25C13438322A25C12021343BC
S11335B01B021B0A094A94466344581E8341DBB22A
S11335C0C8E70023C6E7C046ED3200002F02000022
S11335D02E02000055AAFFFF46415400BABEABFFBD
S11335E0F0B5D6464F464646C0B5150003681C786C
S11335F0303C092C0ED85A783A2A01D000240AE02B
S1133600023303600B20072C05D91CBC9046994655
S1133610A246F0BD0024A300C54A9E580E60002EA9
S113362000D1E8E03378002B0DD07078C14B984777
S11336300300C20707D40020002DE6D05B0700D4A6
S1133640DBE00A30E1E700233370E0B27070BA4B7C
S1133650984703000320DA07D7D4002D02D007309F
S11336605B07D2D400213000B44B984703000024F8
S1133670012800D19AE0032B00D1C0E00D20002BDB
S1133680C3D13C33F25C1202013BF35C134380224E
S113369092001BB29342B8D14723F35C1B02BB3A9E
S11336A0FF3AB55C1D430DD15723F55C2D06013B54
S11336B0F35C1B041D435423F35C1D435523F35C4B
S11336C01B021D43F5614023F25CF270531E0D2072
S11336D0012B9AD83D23F15CB170002995D04B1E83
S11336E0194292D14223F35C1B023430305C1843FC
S11336F0804630810D2043461B0700D085E74423D4
S1133700F35C1B023630305C03430DD15333F35C5E
S11337101B065220305C000403435020305C0343FA
S11337205120305C000203433F20305C00023E27FE
S1133730F75D0743BA460D20002F00D165E76A43C1
S113374091464246170957444F44BB4200D25CE7B6
S1133750D81B7B4B984703000D20002B00D154E766
S1133760784A9A4292415242013277498B4248D870
S11337700233B361E719B762544434620D20414601
S1133780002900D141E74C447462022A2CD15B0029
S11337906E498C4663445B0A0D209D4200D234E797
S11337A001235B4233610023F360B6E0F233FF335D
S11337B0F35C0D20002B00D127E7FA23FF33F45CE0
S11337C02406013BF35C1B041C43FB235B00F35CFA
S11337D01C43F823FF33F25C12021443210030002F
S11337E0564B9847030046E70321594349080120F3
S11337F00340CB18CCE70C2007E7002005E70120A5
S113380003E70233B361E719B7625246A218326282
S11338100D204246002A00D0F7E65F22B25C120671
S11338205E21715C09040A435C21715C0A435D21D9
S1133830715C09020A4372629B00444A94466344E1
S11338405B0A0D209D4200D2DFE601235B42336117
S11338500023F36073716133F35C1B026022B25C7A
S11338601A43121972613100303170780123384CD7
S1133870A0470322002850D1364BF25C1202364B8B
S1133880F35C134335491BB203228B4245D13323E6
S1133890F35C1B062F32B25C120413433022B25C79
S11338A013433122B25C120213432D4903228B428B
S11338B033D12C4BF35C1B062B4AB25C120413432A
S11338C085229200B25C1343284AB25C120213436D
S11338D0274903228B4220D1264BF35C1B06264A40
S11338E0B25C1204134387229200B25C1343234A4E
S11338F0B25C12021343F360214BF35C1B06214AB2
S1133900B25C1204134386229200B25C13431E4A33
S1133910B25C120213433361032232701B4A1388D0
S113392001339BB21380F3800020F06230716CE6A7
S113393054010020D1320000353200003D35000032
S1133940A14F0000F50F0000F5FF0000FF0100008B
S1133950ED3200002F0200002E02000055AAFFFFE6
S113396052526141170200001602000015020000C5
S1133970727241611F0200001E0200001D0200005D
S11339801B0200001A02000019020000740100204A
S1133990F0B5CE4600B582B004000F00C56A8D4272
S11339A03FD00379002B07D10023002F2CD118001E
S11339B002B004BC9146F0BD30239C468444634667
S11339C061460193407801232A00174EB047012332
S11339D00028ECD100232371236AE26994466344EE
S11339E09D42E1D2E678012EDED90F4B9946E36978
S11339F09C466544607801232A000199C847013E2A
S1133A00F6B2012EF3D1CFE72100303160780133D3
S1133A103A00064DA84701230028C8D1E7620023D5
S1133A20C5E70023C3E7C04671330000ED32000050
S1133A30F8B505000C00012974D90120AB6999423D
S1133A4071D22B78022B34D0032B49D0012B02D016
S1133A500120404267E04E087618710A2B6A9C46A2
S1133A6061442800304B9847002802D0012040428E
S1133A7059E0F305DB0DEB1830331F780136710A7A
S1133A802B6A9C4661442800274B9847002802D0A3
S1133A900120404247E0F605F60DAD19303528788F
S1133AA000023843E30701D500093CE00005000D9E
S1133AB039E0090A2B6A9C46614428001A4B98474E
S1133AC0002802D0012040422DE06400FF235B0067
S1133AD01C402D1930356B781B022878184322E0DE
S1133AE0C9092B6A9C46614428000F4B984700285B
S1133AF002D00120404216E0A400FE235B001C40DB
S1133B0023003033EB18D87800069A781204104357
S1133B102C193034227810435B781B0218430001BF
S1133B20000900E00120F8BD91390000F8B5040057
S1133B300D00E18081680220012903D023689A697D
S1133B40914200D3F8BD002919D11A78032A13D061
S1133B500022E2601A890220AA42F3D92A0992B209
S1133B605B6A9B182361236830330F2215406D0173
S1133B705D1965610020E5E7596A0029E8D09E785F
S1133B803601B54213D3AD1BADB2104F00E01D009A
S1133B902068B8470100431C12D0012812D92368B9
S1133BA09B69984210D2AB1B9BB2B542EFD2E16045
S1133BB02068074B98472B099BB218182061D2E75D
S1133BC00120BFE70220BDE70220BBE7313A000035
S1133BD0D7340000F0B5C64600B507000C00160047
S1133BE00225012902D98369994203D3280004BC20
S1133BF09046F0BD0378022B53D0032B63D00225EB
S1133C00012B02D001233B71F0E74B08984688440E
S1133C104346590A036A9C4661443B4B9847051E38
S1133C20F0D14346DB05DB0DE2071FD5FB1830332B
S1133C3019780F220A403101FF20000101400A4394
S1133C401A704446013401233B71610A3B6A9C4665
S1133C50614438002C4B9847002851D1E405E40D09
S1133C603609F6B23C1930342670CBE7FB183033F2
S1133C701E704446013401233B71610A3B6A9C4631
S1133C8061443800204B984700283BD1E405E40DFB
S1133C903B1930331B780F2293433605360F1E43EE
S1133CA0E0E7090A036A9C466144174B9847051EDE
S1133CB0A8D16300FF2464002340FB1830331E7036
S1133CC0360A5E709EE7C909036A9C4661440E4B3E
S1133CD09847051E96D1A400FE235B001C402200D9
S1133CE03032BA18D3783C1930341B091B071E43F1
S1133CF02670330A5370330C9370360ED67081E7F6
S1133D0005007FE705007DE791390000F0B5C64660
S1133D1000B505008846002907D1C668002E0DD0DD
S1133D2083699E420BD3012609E0264B984701285C
S1133D303DD9AB694646984201D23DE001263400A4
S1133D40204F0AE021002800B84700280DD0431C6A
S1133D5032D0012830D0B4422DD00134AB699C421A
S1133D60F0D3012E25D90224ECE7174A21002800BC
S1133D70164B9847002813D14346002B09D1EC6019
S1133D802B695A1C1BD0013B2B6101236B71200052
S1133D9012E02200414628000C4B98470028EED040
S1133DA001384242424150420123184304E00120B9
S1133DB002E0002000E0002004BC9046F0BD20009A
S1133DC0FAE7C046313A0000FFFFFF0FD53B000081
S1133DD0F8B5CE46474680B504000D0002200129FF
S1133DE002D9A369994203D30CBC90469946F8BD05
S1133DF0134F144B98460123994603E03500A369F9
S1133E00B342F1D929002000B847061E11D0012879
S1133E1011D0431C11D0002229002000C0470028E3
S1133E20E2D123695A1CE9D0013323614B46637103
S1133E30E4E70020D8E70220D6E70120D4E7C04613
S1133E40313A0000D53B0000F8B5D646474680B568
S1133E5006000D00C4880134A4B20420002C03D150
S1133E600CBC90469A46F8BD3369002BF8D00F2756
S1133E7027400FD101333361F168002904D133683D
S1133E801B89A342ECD905E030688378013B220901
S1133E901A4207D0F480336830337F01DF19776129
S1133EA00020DDE72C4B9847804602204346012B37
S1133EB0D6D901334BD033689A6990453FD3023049
S1133EC0002DCDD0F1681800244B98478046072078
S1133ED04346002BC4D00538012BC1D0013801332F
S1133EE0BED0002130681E4B984703000120002BF0
S1133EF0B6D130683030802292000021194B9847A7
S1133F00356841462800184B9847E862002501238C
S1133F109A4633689A78AA420ED952461A710021F9
S1133F2030680F4B9847002813D13268D36A0133A5
S1133F30D3620135EDB2ECE7DA6A521BDA6243462A
S1133F40F36041463068084B98473061A2E701208E
S1133F5086E7012084E7C046313A00000D3D0000A9
S1133F6091390000C5340000D7340000F0B5DE46B6
S1133F7057464E464546E0B583B0050000215A4BEE
S1133F809847071E00D09EE0FF2399469A46574B58
S1133F909B461BE00F2B30D05346002B05D120004D
S1133FA0534B9847814500D18DE001235B422B841C
S1133FB0A869C37ADB0700D47DE0FF239A46002179
S1133FC028004C4B9847071E00D07CE029692868DC
S1133FD0D847071E77D16C692678002E00D180E07F
S1133FE0E27A3F231340E52E00D177E01207D1D5C2
S1133FF00F2B02D0FF239A46E1E7EF69002FDED0B2
S1134000730618D5637B994640239E43EB882B8423
S1134010637B0093FF2292464B45D0D12378BF3A6D
S11340209343013B5A00D218920092469A440122CB
S1134030002399461DE0B245EAD0FF239A46BEE725
S11340402D4B984701905346FE2B1FD80123534410
S1134050984653465B00D85B274B98470200019B68
S1134060834213D1C24601239C46E1444B460D2BA7
S113407011D0224B4946C95C63185B781B02605C13
S11340801843002ADCD11E4B9842ECD0009B994681
S1134090FF239A4693E723785B0606D5002A04D0CB
S11340A053465B00DB5B002BF0D1013EF3B29A4632
S11340B0009B994683E70023E15CC25C91420AD1EC
S11340C001330B2BF8D1380003B03CBC9046994621
S11340D0A246AB46F0BDFF239A4670E7FF239A46FB
S11340E06DE70427EFE7C0462D3B0000913900003F
S11340F0EF340000493E0000554D000050570000C9
S1134100FFFF0000F0B5DE4657464E464546E0B593
S113411089B004008769C3699A4605AD0C22390049
S11341202800A74B9847EB7ADB0700D470E0002304
S1134130FB72E3610B2205A93800A14B98470123C8
S113414003AD1E00A04649E0013829184A701B0936
S11341509BB2002B07D0210019400A003032392AC3
S1134160F2D90732F0E77E332B5400280AD03B788B
S1134170202B09D000230133984207D0FA5C202A6F
S1134180F9D109E0030007E0002305E0030003E0A0
S1134190FA540133072B05D820220728F8D82A5CC3
S11341A00130F5E74046874B984700281CD101367B
S11341B0B6B2642E15D00B2205A93800804B98475F
S11341C03300052E0AD951465A08DB0313430A88E3
S11341D09B189BB202310A88002AF5D107200F24CC
S11341E0B9E70723984606E044468046642E00D18A
S11341F0A5E0042807D0404609B03CBC9046994647
S1134200A246AB46F0BD05ABDB7AFB725346E361D5
S113421005ABDB7A012293469B0711D553461B88D5
S1134220002B1BD000205246013080B243009B5A21
S1134230002BF9D119300D21634B984783B29B466B
S113424000212000614B984780460028D3D1824644
S113425000255F4F00265F4B99460BE00020E9E7FD
S11342606B1C9BB29B456DD01D0001212000C847EB
S1134270002812D121692068B847002800D098E0AE
S113428063691B78E52B01D0002B04D1002DE7D105
S1134290E3889A46E4E73500E7E78046ABE7514612
S11342A020004A4B984780460028A4D1A0694A4B75
S11342B098470190A8461FE0220067E05E466446E6
S11342C046498B4203D05200935B002B03D1402319
S11342D04A461A4391464B460370012322681371E0
S11342E0002120003B4B9847002866D14546013DFC
S11342F0ABB29846002B27D021692068344B9847ED
S1134300002858D1E669606943466A46D370D37879
S11343109946137943730F23C3720023037383767F
S1134320C3764B46013B5A00D2189200D2182C494E
S11343300D000D350023294FB346A44629E0072379
S1134340984658E7012BAAD821692068204B984742
S11343508046002800D04EE765692022002128000D
S1134360204B98470B22A1692800154B9847A36955
S1134370DA7A182313402B73236801221A713AE75F
S11343800C78FF2606550419FF2666700131A942F0
S113439094D0BB42F4D0541C52005B46D35A0A78E2
S11343A0835482181E0A5670002B85D122003B00CC
S11343B0ECE780461FE780461DE780461BE7C046C2
S11343C0B13400006D3F0000B55000002D3B0000EB
S11343D091390000493E0000EF340000FFFF000067
S11343E050570000C534000070B5040000212C4B68
S11343F0984700280AD12378032B08D0607800223C
S11344000021284B9847431E9841C0B270BD637980
S1134410002BF3D00026E66225003035802292007E
S113442000212800204B98475522204BE254553256
S11344301F4BE254DE3BFF3B7A3AA3540132A354B0
S11344400F330132A3540F32332162543F3185209C
S1134450800021541748215417496254174AA35421
S113446023690132A354190A154AA154190C154A97
S1134470A1541B0E144AA354E3680132A354190A2D
S1134480124AA154190C124AA1541B0E114AA354E6
S113449060780123626929000F4DA8476671ADE772
S11344A091390000F5330000C53400002E020000ED
S11344B02F0200001502000016020000170200007F
S11344C0190200001A0200001B0200001D02000075
S11344D01E0200001F02000071330000F0B5DE462A
S11344E057464E464546E0B583B082460D000B78EC
S11344F02F2B0FD05C2B0DD00023524693602B78CA
S113450057461F2B09D800215046B24B9847002329
S11345107B613AE10135EFE7013528782F28FBD09C
S11345205C28F9D0FB699A4680B21F2800D83BE189
S11345302F2800D13BE15C2800D13BE16E1C012413
S113454080235B009846BB462B002500340056466A
S1134550994611E0002B35D130806B1C20781F2840
S11345601ED92F2800D128E15C2800D142E102366F
S11345700134434526D01D000121974B9847011E65
S113458020D07F28E8D8222800D1FDE02A23934AAE
S11345909FB28F42DED001321378002BF8D1DBE7D3
S11345A02C005F464D46ED1804260BE1013C023B0E
S11345B0002C00D1E8E01A88202AF7D02E2AF5D062
S11345C0002C01D10620E0E0630098460023524607
S11345D0414653520B222021B869814B98475246D9
S11345E0002301E00133023211882029FAD02E2958
S11345F0F8D0002B01D00322164352464244023A1B
S113460012882E2A09D04246043A5244013C002C16
S113461003D0023A51882E29F8D1082201920022AF
S113462093469146A04606E0444500D1E6E00323C4
S11346301E43F6B223005C1C5B005246985A0028C5
S11346402CD02028F3D02E28EED0019B9B4519D2E4
S1134650444500D1D2E07F285ED82B286ED02C238D
S1134660604A99B2814267D001321378002BF8D1A5
S11346700300413B9BB2192B6CD802234A461A43D0
S113468091465FE0019B0B2B3BD0444500D1B9E040
S113469003231E43F6B2444500D8B3E0BB691A783D
S11346A0E52A36D0019B082B60D00C234A461340E0
S11346B00C2B60D0D24392075DD0B20706D40322FC
S11346C049460A40012A59D0042B5AD0BB69DE72EC
S11346D03800454B9847BB69DB7A00285CD15B07FF
S11346E053D47A69D37ADB065CD5517D0902137DF4
S11346F00B431B04D17E0902927E0A431343BB6021
S11347000BE703231E43BB691A78E52ACDD10B229C
S1134710019205221A70C5E700212F4B9847002803
S113472000D179E0314B9C46604480380078022304
S11347301E43002802D090E7002B99D003231E4388
S1134740F6B25F20BB695A4698542300012294466E
S1134750E34470E70300613B9BB2192BF2D80123B9
S11347604A461A439146203880B2EBE74B469B00F9
S1134770DBB2994699E7022216439EE70F321643AD
S1134780A2E704331E43A1E7062003B03CBC9046D5
S11347909946A246AB46F0BD0428F6D15B07F4D493
S11347A00130F2E70520F0E701230024FBE60123B2
S11347B0002405E00123002402E02C005F464D465E
S11347C0ED180026002CDFD0094BE3185B0053449E
S11347D0F1E6C0462D3B00000D4D0000E1570000FE
S11347E0C5340000ED5700006D3F00006057000025
S11347F0FFFFFF7F2C005F464D46E1E7019B0B2B3B
S113480000D17EE74B469B00DBB2994643460B2220
S11348100192033A93460EE702231E438EE7C046F5
S11348200B23072801D9180070478300074A9B58B7
S1134830002B01D000221A70002901D000230B7034
S11348408000024BC1500023EDE7C0465401002014
S1134850F0B5C64600B5594CA544050001911700B2
S1134860002303601F2616401E223A4085A901A892
S1134870534B984782AB8B9302AB8C93002806D0A2
S11348808A9C1C233B4245D100283DD10CE0019970
S113489085A84C4B98478A9C0028F2D1002C00D163
S11348A086E01C233B4246D1E37A0420DA062BD46B
S11348B0BA0702D50330DB0726D43B0701D52023F2
S11348C01E43859BDB6AEB612C62AE71627D120232
S11348D0237D13431B04E17E0902A27E0A43134392
S11348E02B61E37F1B06A27F12041343227F134331
S11348F0627F12021343EB600023AB60AB61859BC4
S11349002B60DB88AB8000208E239B009D4404BC7D
S11349109046F0BD042805D008231E438A9C002835
S1134920D3D0F1E785A8284B984708231E438A9CD7
S1134930002808D0E8E7E37A112207201A42E3D1DD
S113494001307B07E0D43307BBD5204B9847A073D5
S1134950030AE373030C2374000E60740023E372F0
S113496023776377A377E377627D1202277D17436A
S11349703F04E17E0902A27E0A431743A376E3764D
S113498023756375859801330371002F97D0C36A2B
S1134990984639000E4B98470028B5D18598013FB9
S11349A0C76041460B4B9847002800D187E7ABE727
S11349B01C2306203B42B2D00620ADE7C8FDFFFF12
S11349C0E1350000DD4400000541000061340000D1
S11349D0D13D000091390000F0B5DE4657464E4601
S11349E04546E0B583B004000D0016009946002347
S11349F04A461360818800687F4B984700900028DE
S1134A0000D0F1E0A3795AB2002A00DAEAE09B0769
S1134A1002D407230093E7E0E3689A19934210D87D
S1134A20002E0ED02F007BE00021744B984703002A
S1134A30206103E06169714B98470300002B00D0AB
S1134A4080E0A368E268934200D9E360A37920225E
S1134A501343A371C8E0A279813B1343A3710223DA
S1134A600093C1E0A2797F3B1343A3710123009318
S1134A70BAE00021624B984700286DD0A2798023C8
S1134A805B421343A37101230093ADE0A279802319
S1134A905B421343A37102230093A5E0A279802310
S1134AA05B421343A371012300939DE04002391834
S1134AB03033180080229200524B9847002322681A
S1134AC0137172E0A368E268934271D24346A36112
S1134AD0A368DD05ED0D80239B005D1BB54200D965
S1134AE03500A1692068464B9847002872D1A36815
S1134AF0D805C00D303023689C4660442A00390034
S1134B00404B98470123226813717F19A3685B19EE
S1134B10A3604B461B685B194A461360761B90D012
S1134B20A368DA05D4D120688278013A5D0A154079
S1134B30EDB2002D0BD1002B00D07BE72369002BB5
S1134B4000D171E7012B86D05A1C8BD06361206899
S1134B50C36AA26993428CD023689A46616918009B
S1134B60294B9847002891D08046A844730A9B4655
S1134B70A8D053469B785A46AA189A4201D95B1B7F
S1134B809B465B466A46D371D37952465078424677
S1134B9039001E4DA847002800D07FE72368DA6A51
S1134BA04146501A834500D980E75B465D02ACE775
S1134BB000215046124B9847002803D123684246EF
S1134BC0DA6283E7A27980235B421343A371012352
S1134BD0009309E0A27980235B421343A37101236C
S1134BE0009301E002230093009803B03CBC90467C
S1134BF09946A246AB46F0BD0D3500000D3D0000C0
S1134C0091390000B1340000D73400007133000042
S1134C1070B50400818800681C4B9847002802D1B5
S1134C20A3799B0600D470BDE1692068184B9847AE
S1134C300028F8D1256AEB7A20221343EB72237BF8
S1134C402B77A3891B0A6B77E389AB77E37BEB773D
S1134C50237CAB76238A1B0AEB76638A2B75638AE3
S1134C601B0A6B750B4B9847A875030AEB75030C6D
S1134C702B76000E6876A37920229343A371012337
S1134C80226813712068044B9847CCE70D35000067
S1134C909139000061340000E943000010B50400BC
S1134CA0034B9847002801D10023236010BDC04660
S1134CB0114C000010B582B00C006B46187001ABAB
S1134CC0012269462000054CA047019B581E431E43
S1134CD0984140420123184302B010BDD949000055
S1134CE0F8B506000D00007800280BD00024064F0C
S1134CF02900B847431C04D00134305D0028F7D1A3
S1134D002000F8BD0020FCE7B54C000003007F281C
S1134D1011D9002911D1C72817D00D4A0232012315
S1134D201188814204D001339BB20232802BF7D127
S1134D308033FF200340180070470023FF28FAD86F
S1134D4080384000024BC35AF5E70023F0E7C04621
S1134D50F4570000612814D00B4B04330121622264
S1134D60904207D0013102339A1E1288002AF7D1EB
S1134D70030004E0031E02D04900044BCB5A180080
S1134D8070470021F8E7C046F4580000D45A0000E8
S1134D90F0B55B4CA54400AF95239B00FA18594B22
S1134DA013CB13C211001A680A609B888B80564B80
S1134DB09847564B9847564B9847564C01252570B3
S1134DC0BFF35F8F62B6544B98472570BFF35F8F74
S1134DD062B65248524CA0475248A047504E524CDB
S1134DE064E02000B0475148B0470020504B98473A
S1134DF00228FAD10020A8470128F2D00028F9D1CE
S1134E004C48474B98478C22920000212423F818E1
S1134E10494B98472423F9180020484B98470B28FE
S1134E2049D047483E4B984746483D4B98479523C1
S1134E309B00F91830230B700A223800424B984724
S1134E4000283ED0020041490020414B9847414888
S1134E50334B98470020404B9847FA229200002396
S1134E6000213E4DA8473E4A0023801859413D4A3F
S1134E7000233D4DA8473D4B984772B6BFF35F8F63
S1134E80244B00221A703A4B98473A4B9847B02368
S1134E901B021A6882F30888374A9360374B1B68F1
S1134EA098470020224B98470228FAD134481C4BDB
S1134EB09847344D9EE70B2224490020244B984701
S1134EC0C5E71F48164B98472F48154B984739009C
S1134ED02E482F4B9847002807D138002D4B984770
S1134EE02D4900201A4B9847B1E715480C4B9847B9
S1134EF03800284B98472948094B9847A7E7C046EC
S1134F0094FDFFFF1C5E0000FD300000351500001D
S1134F10350200000D00002089050000B45C00008B
S1134F2095030000C85C0000185D00002C5D0000C3
S1134F30A9050000545D00005155000021480000FF
S1134F40805D0000885D000051480000705D000035
S1134F505D040000005E0000B92E0000CD52000088
S1134F60571B0000581B00008D5200000100002058
S1134F705D0300000D10000000ED00E004B000002F
S1134F80F05C0000BD0C0000A45D0000C85D0000E2
S1134F90E14C00009D4C0000DC5D0000E85D000079
S1134FA0002243088B4274D303098B425FD3030A64
S1134FB08B4244D3030B8B4228D3030C8B420DD377
S1134FC0FF22090212BA030C8B4202D31212090205
S1134FD065D0030B8B4219D300E0090AC30B8B4243
S1134FE001D3CB03C01A5241830B8B4201D38B03F1
S1134FF0C01A5241430B8B4201D34B03C01A524196
S1135000030B8B4201D30B03C01A5241C30A8B42D8
S113501001D3CB02C01A5241830A8B4201D38B02C3
S1135020C01A5241430A8B4201D34B02C01A524167
S1135030030A8B4201D30B02C01A5241CDD2C309D9
S11350408B4201D3CB01C01A524183098B4201D355
S11350508B01C01A524143098B4201D34B01C01A40
S1135060524103098B4201D30B01C01A5241C308B8
S11350708B4201D3CB00C01A524183088B4201D327
S11350808B00C01A524143088B4201D34B00C01A13
S11350905241411A00D20146524110467047FFE77F
S11350A001B5002000F0F0F802BDC0460029F7D099
S11350B076E7704703460B437FD4002243088B42B4
S11350C074D303098B425FD3030A8B4244D3030B8B
S11350D08B4228D3030C8B420DD3FF22090212BA50
S11350E0030C8B4202D31212090265D0030B8B42CC
S11350F019D300E0090AC30B8B4201D3CB03C01AB6
S11351005241830B8B4201D38B03C01A5241430B90
S11351108B4201D34B03C01A5241030B8B4201D380
S11351200B03C01A5241C30A8B4201D3CB02C01AEB
S11351305241830A8B4201D38B02C01A5241430A63
S11351408B4201D34B02C01A5241030A8B4201D352
S11351500B02C01A5241CDD2C3098B4201D3CB01F9
S1135160C01A524183098B4201D38B01C01A5241A8
S113517043098B4201D34B01C01A524103098B42AC
S113518001D30B01C01A5241C3088B4201D3CB0097
S1135190C01A524183088B4201D38B00C01A52417A
S11351A043088B4201D34B00C01A5241411A00D22A
S11351B001465241104670475DE0CA0F00D0494293
S11351C0031000D34042534000229C4603098B4203
S11351D02DD3030A8B4212D3FC22890112BA030A8B
S11351E08B420CD3890192118B4208D3890192110D
S11351F08B4204D389013AD0921100E08909C30992
S11352008B4201D3CB01C01A524183098B4201D393
S11352108B01C01A524143098B4201D34B01C01A7E
S1135220524103098B4201D30B01C01A5241C308F6
S11352308B4201D3CB00C01A524183088B4201D365
S11352408B00C01A5241D9D243088B4201D34B0080
S1135250C01A5241411A00D20146634652415B10C2
S1135260104601D34042002B00D5494270476346A3
S11352705B1000D3404201B5002000F005F802BDE8
S11352800029F8D016E770477047C046002B11D1AB
S1135290002A0FD1002900D1002802D00021C943DF
S11352A0081C07B4024802A14018029003BDC0467E
S11352B0D9FFFFFF03B4684601B5029800F030F847
S11352C0019B9E4602B00CBC7047C046F0B5CE466A
S11352D0474615042D0C2E0080B50704140C3F0C12
S11352E09946030C7E435D43674363437F19340C43
S11352F0E4199C46A54203D980235B029846C44422
S11353004B46514343433604360C250C2404654470
S1135310A4195918491920000CBC90469946F0BDAF
S1135320F0B557464E464546DE46E0B5040083B028
S11353300D00924699468B422FD82CD049465046B0
S113534000F0AEF829000600200000F0A9F8331A96
S11353509846203B9B4600D574E053465A469340FA
S11353601F005346424693401E00AF4229D826D020
S11353705B46A41BBD41002B00DA79E00022002328
S11353800092019301235A4693400193012342461C
S11353909340009319E08242D0D900220023009266
S11353A001930C9B002B01D01C605D600098019957
S11353B003B03CBC90469946A246AB46F0BDA3421E
S11353C0D6D900220023009201934346002BE8D053
S11353D0FB0772081A4346467B080EE0AB4201D134
S11353E0A2420CD8A41A9D41012024196D41002128
S11353F0013E24184D41002E06D0AB42EED9013EA9
S113540024196D41002EF8D15B46009801990019CA
S11354106941002B22DB2B005A46D3402A00444624
S1135420E2401C005B461500002B2CDB26009E404E
S1135430330026004746BE403200801A994100904E
S11354400191AEE7424620239B1A5246DA40414678
S113545013004A468A4017001F4382E7424620232E
S11354609B1A2A0046469A402300F3401343D5E78B
S11354704246202300219B1A00220091019201221E
S1135480DA40019282E74246202326009B1ADE403E
S11354902F00B446974066463B003343C9E7C046F5
S11354A010B5002903D100F007F8203002E0081CF1
S11354B000F002F810BDC0461C2101231B049842D1
S11354C001D3000C10391B0A984201D3000A083991
S11354D01B09984201D30009043902A2105C401848
S11354E07047C046040302020101010100000000EC
S11354F00000000070B500260C4D0D4C641BA41078
S1135500A64209D1002600F093FC0A4D0A4C641B04
S1135510A410A64205D170BDB300EB5898470136DC
S1135520EEE7B300EB5898470136F2E73C5E000023
S11355303C5E00003C5E0000405E000010B5034B82
S11355400100186800F00CF810BDC04610000020DF
S113555003008218934200D1704719700133F9E7B0
S1135560032370B5CD1C9D43083506000C2D1ED2B7
S11355700C25A9421DD8300000F069F8254A1468AA
S11355802100002919D1244C2368002B03D13000B9
S113559000F044F820602900300000F03FF8431C7C
S11355A02CD10C233000336000F052F803E0002DBE
S11355B0DFDA0C233360002070BD0B685B1B1AD448
S11355C00B2B03D90B60CC18256003E08C420ED161
S11355D063681360300000F03BF8200007220B30B2
S11355E0231D9043C31AE7D05A42E250E4E74B68C4
S11355F063600C00EEE70C004968C2E70323C41C97
S11356009C43A042E0D0211A300000F007F8431C6C
S1135610DAD1C6E7780100207C010020002370B5B0
S1135620064C050008002360FDF7F2FD431C03D17E
S11356302368002B00D02B6070BDC046EC0900200D
S11356400023C25C0133002AFBD1581E7047704707
S113565070470000000000000A0000000C00000079
S11356600D0000000F000000140000001A000000EC
S11356701E00000023000000280000002D00000090
S113568034000000370000003C0000004600000029
S1135690500000000A00000064000000E80300005D
S11356A010270000000000000000000000000000BF
S11356B0000000000A0000000C0000000D000000C3
S11356C00F00000014000000190000001E0000007C
S11356D023000000280000002D000000320000001C
S11356E0370000003C0000004600000050000000AD
S11356F000080042000C0042001000420014004266
S113570000180042001C0042A6290000A229000043
S1135710A2290000082A0000082A0000BA29000073
S1135720AC290000C0290000F6290000C82B0000A5
S1135730A82B0000A82B0000342C0000BA2B00007A
S1135740D62B0000AC2B0000E42B0000242C00001E
S113575001030507090E10121416181C1E00000080
S1135760809A90B68EB78F80D2D3D4D8D7DE8E8F5E
S1135770909292E299E3EAEB59999A9D9C9D9E9F9F
S1135780B5D6E0E9A5A5A6A7A8A9AAABAC21AEAF5A
S1135790B0B1B2B3B4B5B6B7B8B9BABBBCBDBEBF8D
S11357A0C0C1C2C3C4C5C7C7C8C9CACBCCCDCECF7C
S11357B0D0D1D2D3D4D5D6D7D8D9DADBDCDDDEDF6D
S11357C0E0E1E2E3E5E5E6E7E7E9EAEBEDEDEEEF5C
S11357D0F0F1F2F3F4F5F6F7F8F9FAFBFCFDFEFF4D
S11357E0222A3A3C3E3F7C7F000000002B2C3B3DAC
S11357F05B5D0000C700FC00E900E200E400E0009B
S1135800E500E700EA00EB00E800EF00EE00EC0042
S1135810C400C500C900E600C600F400F600F200AA
S1135820FB00F900FF00D600DC00F800A300D8005C
S1135830D7009201E100ED00F300FA00F100D1007D
S1135840AA00BA00BF00AE00AC00BD00BC00A100BD
S1135850AB00BB0091259225932502252425C10088
S1135860C200C000A9006325512557255D25A2006B
S1135870A5001025142534252C251C2500253C25A0
S1135880E300C3005A255425692566256025502563
S11358906C25A400F000D000CA00CB00C800310180
S11358A0CD00CE00CF0018250C2588258425A60020
S11358B0CC008025D300DF00D400D200F500D50051
S11358C0B500FE00DE00DA00DB00D900FD00DD00DB
S11358D0AF00B400AD00B1001720BE00B600A700B1
S11358E0F700B800B000A800B700B900B300B200D8
S11358F0A025A000610062006300640065006600EA
S11359006700680069006A006B006C006D006E003F
S11359106F007000710072007300740075007600EF
S11359207700780079007A00A100A200A300A50006
S1135930AC00AF00E000E100E200E300E400E500B9
S1135940E600E700E800E900EA00EB00EC00ED0007
S1135950EE00EF00F000F100F200F300F400F500B7
S1135960F600F800F900FA00FB00FC00FD00FE0060
S1135970FF00010103010501070109010B010D01EC
S11359800F01110113011501170119011B011D015B
S11359901F01210123012501270129012B012D01CB
S11359A02F0131013301350137013A013C013E0138
S11359B0400142014401460148014B014D014F01A0
S11359C0510153015501570159015B015D015F010B
S11359D0610163016501670169016B016D016F017B
S11359E071017301750177017A017C017E019201D5
S11359F0B103B203B303B403B503B603B703B803E7
S1135A00B903BA03BB03BC03BD03BE03BF03C00396
S1135A10C103C303C403C503C603C703C803C9033F
S1135A20CA03300431043204330434043504360424
S1135A303704380439043A043B043C043D043E046E
S1135A403F0440044104420443044404450446041E
S1135A504704480449044A044B044C044D044E04CE
S1135A604F04510452045304540455045604570477
S1135A70580459045A045B045C045E045F047021F6
S1135A807121722173217421752176217721782166
S1135A9079217A217B217C217D217E217F2141FF77
S1135AA042FF43FF44FF45FF46FF47FF48FF49FFCE
S1135AB04AFF4BFF4CFF4DFF4EFF4FFF50FF51FF7E
S1135AC052FF53FF54FF55FF56FF57FF58FF59FF2E
S1135AD05AFF0000410042004300440045004600D4
S1135AE04700480049004A004B004C004D004E005E
S1135AF04F0050005100520053005400550056000E
S1135B005700580059005A002100E0FFE1FFE5FF6B
S1135B10E2FFE3FFC000C100C200C300C400C5002F
S1135B20C600C700C800C900CA00CB00CC00CD0025
S1135B30CE00CF00D000D100D200D300D400D500D5
S1135B40D600D800D900DA00DB00DC00DD00DE007E
S1135B507801000102010401060108010A010C0197
S1135B600E01100112011401160118011A011C0181
S1135B701E01200122012401260128012A012C01F1
S1135B802E01300132013401360139013B013D015E
S1135B903F0141014301450147014A014C014E01C6
S1135BA0500152015401560158015A015C015E0131
S1135BB0600162016401660168016A016C016E01A1
S1135BC0700172017401760179017B017D019101FB
S1135BD09103920393039403950396039703980305
S1135BE099039A039B039C039D039E039F03A003B5
S1135BF0A103A303A403A503A603A703A803A9035E
S1135C00AA03100411041204130414041504160442
S1135C101704180419041A041B041C041D041E048C
S1135C201F0420042104220423042404250426043C
S1135C302704280429042A042B042C042D042E04EC
S1135C402F040104020403040404050406040704E5
S1135C50080409040A040B040C040E040F04602154
S1135C606121622163216421652166216721682104
S1135C7069216A216B216C216D216E216F2121FF25
S1135C8022FF23FF24FF25FF26FF27FF28FF29FFEC
S1135C902AFF2BFF2CFF2DFF2EFF2FFF30FF31FF9C
S1135CA032FF33FF34FF35FF36FF37FF38FF39FF4C
S1135CB03AFF0000455345353136202D20424F4FE1
S1135CC0544C4F41444552000C0A0D2D2D20534491
S1135CD02F4D4D432043617264204578616D706C93
