S0170000434C495F53746172746572436F64652E7372656376
S113000030230020D92B0000D12C0000D12C00007B
S113001000000000000000000000000000000000DC
S1130020000000000000000000000000D12C0000CF
S11300300000000000000000D12C0000D12C0000C2
S1130040D12C0000D12C0000D12C0000D12C0000B8
S1130050D12C0000D12C0000D12C0000D12C0000A8
S1130060D12C00002D190000451900005D19000075
S1130070751900008D190000A5190000D12C00008D
S1130080D12C0000D12C0000D12C0000D12C000078
S1130090D12C00000000000000000000D12C000062
S11300A0D12C0000D12C0000D12C0000D12C000058
S11300B00000000010B5064C2378002B07D1054B37
S11300C0002B02D0044800E000BF0123237010BDC0
S11300D06800002000000000F0320000084B10B55A
S11300E0002B03D00749084800E000BF0748036815
S11300F0002B00D110BD064B002BFBD09847F9E72D
S1130100000000006C000020F0320000F03200001B
S11301100000000080B582B000AF78607B680022E8
S11301201A70C046BD4602B080BDF0B58DB000AFB8
S1130130B860F9603A607B60002300243B627C6213
S113014000230024BB61FC613F23FB6253E0FB6A94
S1130150203B002B04DB01229A4013007B610BE05F
S1130160FB6A2022D31A0122DA4013000021FA6A22
S113017091400A0013437B610122FB6A9A401300F9
S11301803B61BB69FC69DB186441BB61FC61BB6812
S11301903A691A401500FB687A691A4016002B0068
S11301A0334307D0BB6901221343BB61FB690022BF
S11301B01343FB617A68FB699A4219D87A68FB6930
S11301C09A4203D13A68BB699A4211D8B969FA696B
S11301D03B687C68C91AA2410B001400BB61FC6136
S11301E03A6A3B6913433B627A6A7B6913437B62D5
S11301F0FB6A013BFB62FB6A002BA8DA3B6A7C6A60
S113020018002100BD460DB0F0BD80B586B000AF2A
S1130210F860B9607A601623FB1800221A80BB6864
S11302203B61BB685A08FB689A4201D2402326E02E
S1130230BB685B083B610AE03A69FB68D31A3B611F
S11302401623FB181A881623FB1801321A803A6900
S1130250FB689A42F0D21623FB181622BA181288A9
S1130260013A1A801623FB181B88FF2B01D940235F
S113027005E07B681622BA1812881A800023180039
S1130280BD4606B080BD0000F0B5A1B000AFF86473
S1130290B9647A644322BA181370002300243B67BC
S11302A07C6700230024BB66FC6600230024BB6734
S11302B0FC6700237B66582340229446BC44634475
S11302C01A78FB6C5A43BB6C9A4201D94023B3E0C1
S11302D04323FB181B78002B3DD15823402294461E
S11302E0BC4463441B78DBB23B6100237B61FB6C41
S11302F0BB600023FB60524CBA68FB6838697969BB
S1130300A04703000C001B00FB650023BB65BB6C0E
S11303103B6000237B60B86DF96D3A687B68494C9B
S1130320A04703000C003B677C67002101223B6F60
S11303307C6FC91AA2410B001400BB66FC66BB6E3D
S11303401B0CFA6E16041E43BB6E1D043300BB6700
S11303500023FB676AE04323FB181B78012B65D15C
S1130360FB6C3B6300237B63582340229446BC44CC
S113037063441B78DBB2BB620023FB62304CBA6A75
S1130380FB6A386B796BA04703000C00BB65FC6506
S1130390BB6C3B6200237B62BB6DFC6D1A002300C7
S11303A0386A796A274CA04703000C007B667A6E92
S11303B080239B019A4201D940233DE0BB6CBB6181
S11303C00023FB61B969FA690B005B0F1000C000E0
S11303D0F863F86B1843F8630B00DB00BB63BB6D79
S11303E0FC6D1A002300B86BF96B164CA047030090
S11303F00C00BB65FC65BB6DFC6DD9B27B6EDBB2DA
S1130400DB00DAB2172340208446BC4463448A1AD2
S11304101A70172340229446BC4463441B785B0340
S11304201A007B6E1343BB670023FB67BB6FFC6F33
S11304309AB27B6C1A8000231800BD4621B0F0BD2F
S1130440193000002B01000080B584B000AF020019
S1130450FB1D1A70BB1D0A1C1A701A4B1B78012253
S11304605340DBB2002B03D1BB1D1B78002B1BD0E8
S11304700C23FB181800144B98470C23FB18FA1D87
S113048012781A700C23FB18190013200F4B98478D
S113049013200F4B98470B4BFA1D12785A70094BD7
S11304A001221A70002308E0064B5B78FA1D1278CB
S11304B09A4201D1002300E01D231800BD4604B078
S11304C080BDC0468400002015010000652800009E
S11304D0A928000080B582B000AF78600A00FB1C38
S11304E01A707B684D4A93423FD04C4A934206D8D7
S11304F04B4A93420FD04B4A934221D089E04A4A57
S1130500934200D15BE0494A934200D16CE0484AEF
S113051093423FD07DE0FB1C1B78012B0AD002DC08
S1130520002B05D075E0022B06D0032B06D070E01B
S1130530404B6FE0404B6DE0404B6BE0404B69E05B
S1130540FB1C1B78012B0AD002DC002B05D060E0D9
S1130550022B06D0032B06D05BE003235AE0394B71
S113056058E0394B56E0394B54E0FB1C1B78012B07
S11305700AD002DC002B05D04BE0022B06D0032B63
S113058006D046E0324B45E0324B43E0324B41E08B
S1130590324B3FE0FB1C1B78012B0AD002DC002B02
S11305A005D036E0022B06D0032B06D031E02C4BCD
S11305B030E02C4B2EE02C4B2CE02C4B2AE0FB1C87
S11305C01B78012B0AD002DC002B05D021E0022B82
S11305D006D0032B06D01CE0254B1BE0254B19E06D
S11305E0254B17E0254B15E0FB1C1B78012B0AD08B
S11305F002DC002B05D00CE0022B06D0032B06D026
S113060007E01F4B06E01F4B04E01F4B02E01F4BAB
S113061000E000231800BD4602B080BD0010004277
S113062000080042000C004200180042001C004276
S11306300014004203000400030005000300060048
S1130640030007000300010003001E0003001F0055
S1130650030008000300090003000A0003000B0064
S11306600300100003001100030012000300130034
S113067003000C0003000D0003000E0003000F0034
S113068003001600030017000300180003001900FC
S113069090B58BB000AF78600C23FB180F4A13CAD7
S11306A013C313CA13C300237B620EE00C23FB188D
S11306B07A6A9200D3581A007B689A4202D17B6A04
S11306C0DBB206E07B6A01337B627B6A052BEDD9E2
S11306D000231800BD460BB090BDC046BC310000DD
S11306E080B582B000AF78607B681B7C002B0BD098
S11306F07B689B685A1C7B68D968104B100098472C
S11307000B001A007B689A607B685B685A1C7B68E4
S1130710D9680A4B100098470B001A007B685A608E
S11307207B685A687B689B68D31A5A425341DAB291
S11307307B681A74C046BD4602B080BD0D3000000F
S113074080B582B000AF78607B6800221A747B6841
S11307509B685A1C7B68D968054B100098470B00AE
S11307601A007B689A60C046BD4602B080BDC04690
S11307700D30000080B584B000AF7860396014207B
S1130780094B98470300FB60FB687A681A60FB68B2
S11307903A68DA60FB681800044B9847FB68180055
S11307A0BD4604B080BDC046B5300000B1070000AE
S11307B080B582B000AF78607B6800225A607B68A5
S11307C000229A607B6800221A74C046BD4602B0BB
S11307D080BD000080B582B000AF78600A00FB1CC9
S11307E01A707B681A687B685B68D318FA1C1278E5
S11307F01A707B681800034B9847C046BD4602B088
S113080080BDC046E106000080B584B000AF7860CA
S1130810396001235B42FB607B6818000D4B9847ED
S113082003001A0001235340DBB2002B0DD07B6878
S11308301A687B689B68D3181A783B681A707B68BF
S11308401800054B98470023FB60FB681800BD4661
S113085004B080BD5D0800004107000080B582B08F
S113086000AF78607B681B7C01225340DBB2002B15
S113087007D07B685A687B689B689A4201D1012340
S113088000E000231A1C01231340DBB21800BD460C
S113089002B080BD80B582B000AF0200FB1D1A70AB
S11308A0064BFA1D127811001F220A4001219140C3
S11308B00A001A60C046BD4602B080BD00E100E0F7
S11308C080B584B000AF78607B681B68FB60FB6810
S11308D0DB695A1E9341DBB21800BD4604B080BDEB
S11308E080B582B000AF7860C0467B681800044BC6
S11308F09847031EF9D1C046BD4602B080BDC0462C
S1130900C108000080B582B000AF78607B688022A7
S1130910D2051A607B6800225A607B68FF221A8124
S11309207B6800229A727B680022DA727B689622C6
S113093092011A627B682422012199547B68252242
S1130940012199547B682622002199547B6827222F
S1130950002199547B6800229A627B6888225203A2
S1130960DA607B682C22002199547B682D220021B7
S113097099547B6800221A637B6800225A637B685F
S113098000229A637B680022DA637B6800225A6142
S11309907B6800221A827B680022DA767B68002258
S11309A01A767B6800221A777B6800225A767B6865
S11309B013229A767B6800225A77C046BD4602B05D
S11309C080BD000080B584B000AF78607B681B6890
S11309D0FB607B681B681800094B984703001800EC
S11309E0084B98477B681800074B9847FB681B68BF
S11309F002221A43FB681A60C046BD4604B080BD9B
S1130A00E918000095080000E108000080B582B0F4
S1130A1000AF78600A00FB1C1A707B6831229B5C73
S1130A205AB2FB1C1B78012199400B005BB21343A3
S1130A305BB2D9B27B6831229954C046BD4602B03C
S1130A4080BD000080B500AF80235A000F4B110019
S1130A5018000F4B984702000E4B1A6080235A006F
S1130A600D4B110018000A4B984702000B4B1A60FB
S1130A700B4B98470B4B98470B490C4B0122180022
S1130A800B4B9847C046BD4680BDC04608020020B7
S1130A907507000000010020080100200C0300205D
S1130AA06D0B0000E50B000004010020CC000020C9
S1130AB0E114000080B584B000AF78607B68002B3F
S1130AC023D00023FB600BE0124B18687A68FB68A4
S1130AD0D3181B781900104B9847FB680133FB604F
S1130AE07B6818000D4B98470200FB689A42EBD8CC
S1130AF0084B1B680A4A110018000A4B984708491A
S1130B00094B01221800094B9847C046BD4604B062
S1130B1080BDC0460C030020D5070000A9310000A9
S1130B200803002009080000CC00002099140000EC
S1130B3080B582B000AF0200FB1D1A70034BFA1D92
S1130B4012781A70C046BD4602B080BD86000020EF
S1130B500EB480B583B000AF0200FB1D1A70C0460E
S1130B60BD4603B080BC08BC03B0184780B590B044
S1130B7000AF3B001800144B98473B00E12252029F
S1130B801A623B00C4229203DA603B000122524203
S1130B901A633B00012252425A633B000B4A9A6398
S1130BA03B000B4ADA63C0463A000A490A4B180074
S1130BB00A4B9847031EF7D1074B1800084B984778
S1130BC0C046BD4610B080BD0509000003002A00E0
S1130BD003002B0000180042CC0000209D100000F0
S1130BE0C509000080B500AF0C490D4B0022180068
S1130BF00C4B98470C490A4B01221800094B9847A3
S1130C00074B00211800094B9847054B0121180098
S1130C10064B9847C046BD4680BDC0467D0C0000CB
S1130C20CC00002051140000310C00000D0A00001B
S1130C3080B582B000AF78600A4B18000A4B984721
S1130C400A4B1A68074B1B7819001000084B984789
S1130C500449084B01221800074B9847C046BD467B
S1130C6002B080BD04010020B50A0000000100208C
S1130C70D5070000CC000020E114000080B582B04C
S1130C8000AF7860094B1B68094A11001800094B32
S1130C9098470300013305D00549074B012218008A
S1130CA0064B9847C046BD4602B080BD0C030020E9
S1130CB00803002009080000CC000020991400005B
S1130CC080B582B000AF78607B6800221A70C0469D
S1130CD0BD4602B080BD000080B582B000AF020006
S1130CE03960FB1D1A70FB1D1B78012B0AD0022BE7
S1130CF00FD0002B14D10E4B0D4A91693A680A4368
S1130D009A610FE00A4B0A4AD1693A680A43DA61E8
S1130D1008E0074B064A116A3A680A431A6201E07E
S1130D20172300E000231800BD4602B080BDC04672
S1130D300004004080B582B000AF78607B688022F8
S1130D401A707B6800225A707B6801229A707B6853
S1130D500022DA70C046BD4602B080BD80B500AF47
S1130D60054B9B78DBB21A00022313405A1E9341B1
S1130D70DBB21800BD4680BD0020004180B584B0C0
S1130D8000AF78607B681B68FB60FB68DB695A1EF8
S1130D909341DBB21800BD4604B080BD80B582B07B
S1130DA000AF7860C0467B681800044B9847031E68
S1130DB0F9D1C046BD4602B080BDC0467D0D0000DD
S1130DC0B0B58CB002AF786039607B681B68BB61DA
S1130DD07B681B681800AB4B984703007B617B69F9
S1130DE014333B6100237B6200233B620A23FB181C
S1130DF000221A801F23FB1800221A701E23FB18DE
S1130E0010221A703B681B8A8022D20193421CD0A4
S1130E108022D201934206DC002B0DD08022920165
S1130E20934224D035E0C022D201934228D08022BC
S1130E301202934212D02CE01F23FB1800221A70D6
S1130E401E23FB1810221A7023E01F23FB18002214
S1130E501A701E23FB1808221A701AE01F23FB18AD
S1130E6000221A701E23FB1803221A7011E01F239C
S1130E70FB1801221A701E23FB1810221A7008E0B6
S1130E801F23FB1801221A701E23FB1808221A7054
S1130E90C0463B681A683B68DB681A433B685B6979
S1130EA013433A68128A13433A68127E12021343B8
S1130EB03A682621525C520713437B621D23FB18B8
S1130EC000221A703B685B68FB60FB68002B1ED035
S1130ED08022520593424FD13B6827229B5C01221A
S1130EE05340DBB2002B46D03B681D6A3B69DBB242
S1130EF01800654B984701001D23FC180A23FB18B2
S1130F001A002800614B98470300237033E03B68C4
S1130F1027229B5C002B14D03B68186A3B68996AB3
S1130F201D23FC181F23FB181D780A23FA181E23FF
S1130F30FB181B7800932B00554DA8470300237022
S1130F401AE03B681D6A3B69DBB218004E4B9847B8
S1130F501D23FC181F23FB1819780A23FA181E23D3
S1130F60FB181B7800930B0001002800484DA8478C
S1130F700300237000E0C0461D23FB181B78002BE0
S1130F8003D01D23FB181B7877E03B685B7E002BA6
S1130F9003D03B689A7EBB699A737B6818003D4B0B
S1130FA098470A23FB181A88BB699A817A6AFB68F6
S1130FB013437B623B6827229B5C01225340DBB2D4
S1130FC0002B03D07B6A042213437B623B685B7E65
S1130FD09A023B681B7F5B021A433B685B7F1B02E0
S1130FE01A433B6824215B5C5B041A433B6825215C
S1130FF05B5C1B0413433B623B689B7A1A003B6AAD
S113100013433B623B68DB7A1A003B6A13433B623F
S11310103B681B89FF2B0BD07B6A8022520413434D
S11310207B623B681B891A003B6A13433B6208E0FE
S11310303B68DB7E002B04D07B6A8022D2041343FE
S11310407B623B682C229B5C002B03D1124B98479C
S1131050031E03D07B6A802213437B627B681800E3
S11310600C4B9847BB693A6A5A607B681800094B75
S11310709847BB697A6A1A6000231800BD460AB013
S1131080B0BDC04691060000892900000B02000093
S1131090890200009D0D00005D0D000090B593B025
S11310A000AFF860B9607A603B23FB1800221A7025
S11310B0FB68BA681A60FB681B687B63FB681B6883
S11310C01800864B984703003B633B6B0233FB627B
S11310D03B6B1433BB627B6B1B680122134001D052
S11310E00523F6E07B6B1B680222134001D01C230E
S11310F0EFE00122FB6A9A40130019000220784BAA
S113110098472423FB181800764B98477B682D22B8
S11311109A5C2423FB181A70BB6ADBB22422BA1827
S113112011001800704B9847BB6ADBB218006F4B74
S113113098477B682D229B5C002118006C4B9847D4
S11311407B68DA7AFB685A717B6824229A5CFB68B4
S11311509A717B6825229A5CFB68DA717B68DA7E77
S1131160FB681A727B681A7FFB685A723B23FC186F
S11311707A68FB68110018005E4B984703002370DF
S11311803B23FB181B78002B03D03B23FB181B7855
S11311909FE02023FB181800574B98472023FB1887
S11311A000225A702023FB1800229A707B681A6B65
S11311B01023FB181A607B685A6B1023FB185A60C3
S11311C07B689A6B1023FB189A607B68DA6B102398
S11311D0FB18DA604723FB1800221A702CE047231F
S11311E0FB181A781023FB189200D3583B643B6C0D
S11311F0002B09D14723FB181A78BB68110018008B
S11312003E4B984703003B643B6C01330DD03B6C71
S1131210DAB22023FB181A703B6C1B0CDBB22022C1
S1131220BA1811001800364B98474723FB181A7850
S11312304723FB1801321A704723FB181B78032B32
S1131240CDD90023FB630AE0FA68FB6B02339B00F1
S1131250D318043300221A60FB6B0133FB63FB6B6E
S1131260052BF1D9FB6800229A62FB6800225A62BE
S1131270FB680022DA85FB6800229A85FB6830222D
S113128000219954FB68312200219954FB683222D1
S113129000219954FB68332200219954FB681B6890
S11312A02722BC1818000D4B984703002370154AD9
S11312B02723FB181B7811001800134B984727238A
S11312C0FB181A78114B9200F968D1503B23FB1894
S11312D01B781800BD4613B090BDC04691060000AF
S11312E0D90C0000C10C000065280000A9280000EA
S11312F049040000C10D0000350D0000D5040000B4
S1131300512B0000291500007D1800001003002057
S113131080B500AF024B9847C046BD4680BDC0466D
S1131320BD19000080B500AF024B9847C046BD46CA
S113133080BDC046111A000080B584B000AF78604B
S11313407B681B68FB60FB68DB695A1E9341DBB258
S11313501800BD4604B080BD80B582B000AF78608F
S1131360C0467B681800044B9847031EF9D1C04659
S1131370BD4602B080BDC0463913000080B586B0BA
S113138000AFF860B960BB1D1A80FB681B687B6105
S11313900F4B9847FB68DB8D9BB2002B03D00D4BA2
S11313A09847052310E0FB68BA1D1288DA85094BBB
S11313B09847FB68BA689A62FB68332205219954FE
S11313C07B6901229A7500231800BD4606B080BDD2
S11313D0111300002513000080B586B000AFF8603B
S11313E0B960BB1D1A80FB681B687B61164B98476C
S11313F0FB689B8D9BB2002B03D0144B98470523AD
S11314001EE0FB68BA1D12889A85104B9847FB684A
S1131410BA685A62FB683222052199547B69042216
S11314209A75FB681B7A002B02D07B6920229A757F
S1131430FB685B7A002B02D07B6908229A75002333
S11314401800BD4606B080BD11130000251300002E
S113145080B584B000AFF860B960FB1D1A70FB1D45
S11314601B78FA6802339B00D3180433BA681A60F5
S1131470FB6830229B5C5AB2FB1D1B78012199400A
S11314800B005BB213435BB2D9B2FB6830229954B0
S1131490C046BD4604B080BD80B584B000AFF860DE
S11314A0B960BB1D1A80BB1D1B88002B01D11723FB
S11314B010E0FB68DB7901225340DBB2002B01D042
S11314C01C2307E0BB1D1A88B968FB681800034B8E
S11314D0984703001800BD4604B080BD7D1300008A
S11314E080B584B000AFF860B960BB1D1A80BB1D25
S11314F01B88002B01D1172310E0FB689B79012284
S11315005340DBB2002B01D01C2307E0BB1D1A881B
S1131510B968FB681800034B984703001800BD46E0
S113152004B080BDD913000080B588B000AF0200BC
S1131530FB1D1A70FB1D1A78A34B9200D358BB6194
S1131540BB691B687B61BB691800A04B98477B692A
S11315501B7EDAB21223FB181A807B699B7DDBB2F7
S11315609AB21223FB181221791809880A401A80AA
S1131570BB6930229B5CBA693121525C1340DAB2F8
S11315801023FB181A801223FB181B880122134016
S113159044D0BB69DB8D9BB2002B3CD0BB699B6AFA
S11315A01B78DAB21C23FB181A80BB699B6A5A1C8D
S11315B0BB699A62BB695B79012B13D1BB699B6AD6
S11315C01B78DBB21B021AB21C23FB1800215B5EE2
S11315D013431AB21C23FB181A80BB699B6A5A1C5A
S11315E0BB699A621C23FB181B88DB05DB0D9AB2CE
S11315F07B691A85BB69DB8D9BB2013B9BB2BA69DF
S1131600191CD185002B09D17B6901221A757B69CC
S113161002229A7502E07B6901221A751223FB18D3
S11316201B880222134011D07B6902221A75BB6900
S11316303322002199541023FB181B8801221340E4
S113164004D0BB69DB68BA69100098471223FB1801
S11316501B880422134000D1BDE0BB699B8D9BB263
S1131660002B00D1B4E07B695B8B9BB2DAB21F2301
S1131670FB183F210A401A701F23FB181B7808220D
S1131680134007D01F23FB181F22BA181278082111
S11316908A431A701F23FB181B78002B50D01F237A
S11316A0FB181B780222134007D0BB6932221A218F
S11316B099547B6902225A8336E01F23FB181B7856
S11316C00422134007D0BB6932221E2199547B693E
S11316D004225A8328E01F23FB181B78012213409D
S11316E007D0BB693222132199547B6901225A83A2
S11316F01AE01F23FB181B781022134007D0BB6984
S11317003222422199547B6910225A830CE01F2310
S1131710FB181B782022134006D0BB6932224121DA
S113172099547B6920225A831023FB181B880422B6
S1131730134050D0BB695B69BA69100098474AE00E
S11317407B691B8D9AB20E23FB18D205D20D1A8029
S1131750BB695B6A0E22BA181288D2B21A70BB69CE
S11317605B6A5A1CBB695A62BB695B79012B0DD158
S1131770BB695B6A0E22BA181288120A92B2D2B2FC
S11317801A70BB695B6A5A1CBB695A62BB699B8D40
S11317909BB2013B9BB2BA69191C9185002B1AD1EB
S11317A07B6904221A75BB693222002199541023E3
S11317B0FB181B88022213400DD0BB691B69BA6950
S11317C01000984707E0C04610030020591300009A
S11317D07B6904221A751223FB181B8810221340FC
S11317E010D07B6910221A757B6910221A76102397
S11317F0FB181B881022134004D0BB69DB69BA694B
S1131800100098471223FB181B882022134010D085
S11318107B6920221A757B6920221A761023FB1813
S11318201B880822134004D0BB699B69BA69100065
S113183098471223FB181B880822134010D07B6999
S113184008221A757B6908221A761023FB181B8854
S11318502022134004D0BB691B6ABA691000984760
S1131860C046BD4608B080BD80B582B000AF02005E
S1131870FB1D1A70C046BD4602B080BD80B584B061
S113188000AF02003960FB1D1A70134B1B78012254
S11318905340DBB2002B15D00023FB600CE00F4B50
S11318A0FA6892000E49D1500E4BFA68920000215A
S11318B0D150FB680133FB60FB68052BEFD9064B65
S11318C001221A70FB1D1A78044B92003968D1501A
S11318D0C046BD4604B080BD8700002088000020BB
S11318E0691800001003002090B585B000AF78603F
S11318F00823FB180B4A1168196092889A800F23F9
S1131900FC187B681800084B9847030023700F23CA
S1131910FB181B780822BA18D35C5BB21800BD46CA
S113192005B090BDD43100009106000080B500AF31
S1131930034B1B6800209847C046BD4680BDC04687
S11319408800002080B500AF034B5B6801209847F6
S1131950C046BD4680BDC0468800002080B500AFAB
S1131960034B9B6802209847C046BD4680BDC046D5
S11319708800002080B500AF034BDB680320984744
S1131980C046BD4680BDC0468800002080B500AF7B
S1131990034B1B6904209847C046BD4680BDC04622
S11319A08800002080B500AF034B5B690520984791
S11319B0C046BD4680BDC0468800002080B582B0C8
S11319C000AF104B1B68002B12D1EFF310837B6028
S11319D07B68002B09D172B6BFF35F8F0A4B0022DC
S11319E01A700A4B01221A7002E0084B00221A7086
S11319F0044B1B685A1C034B1A60C046BD4602B018
S1131A0080BDC046A000002000000020A4000020EB
S1131A1080B500AF0B4B1B685A1E0A4B1A60094B6A
S1131A201B68002B0AD1084B1B78DBB2002B05D0B6
S1131A30064B01221A70BFF35F8F62B6C046BD46E3
S1131A4080BDC046A0000020A400002000000020AB
S1131A5080B584B000AF0200FB1D1A700F23FB1881
S1131A60FA1D1278D2091A700E23FB18FA1D127887
S1131A7052091A700D4BBB600F23FB181B78002B07
S1131A800FD10F23FB181B789B0010229446BC44F3
S1131A906344083B1A680E23FB181B78DB01D31838
S1131AA000E000231800BD4604B080BD004400419E
S1131AB080B582B000AF0200FB1D1A70FB1D1B78BD
S1131AC01800034B984703001800BD4602B080BDC0
S1131AD0511A000080B582B000AF78607B680022A4
S1131AE01A707B6801225A707B6800229A70C04683
S1131AF0BD4602B080BD000080B584B000AF0200D6
S1131B00FB1D1A70BB1D0A1C1A70FB1D1B781800E4
S1131B100D4B98470300FB60FB1D1B781F221340ED
S1131B2001229A401300BB60BB1D1B78002B03D01D
S1131B30FB68BA689A6102E0FB68BA685A61C046F9
S1131B40BD4604B080BDC046B11A000080B582B065
S1131B5000AF3B1D18000E4B98473B1D01221A7025
S1131B603B1D190017200B4B9847012117200A4BE6
S1131B7098473B1D00221A703B1D01225A703B1DE1
S1131B8019003720034B9847C046BD4602B080BDBC
S1131B90D51A0000C51B0000F91A000080B582B0F8
S1131BA000AF78607B6880221A707B6800225A70CC
S1131BB07B6801229A707B680022DA70C046BD46B9
S1131BC002B080BD80B584B000AF02003960FB1D57
S1131BD01A700C23FB181800104B98470C23FB18A1
S1131BE080221A703B681A780C23FB185A703B68E1
S1131BF05A780C23FB189A703B689A780C23FB18CC
S1131C00DA700C23FA18FB1D1B7811001800044B22
S1131C109847C046BD4604B080BDC0469D1B000029
S1131C20512B000080B582B000AF78607B68012240
S1131C305A607B6800225A707B6806221A707B689F
S1131C4000221A727B6800225A72C046BD4602B056
S1131C5080BD80B582B000AF78607B6800221A70C6
S1131C60C046BD4602B080BD80B582B000AF78608A
S1131C707B6800221A707B6804225A707B680022F9
S1131C809A707B68802212029A607B680022DA7064
S1131C907B6801221A717B6800221A737B68012217
S1131CA05A737B6800229A73C046BD4602B080BD59
S1131CB080B582B000AF78607B6803221A707B68BD
S1131CC000225A707B6801229A70C046BD4602B059
S1131CD080BD80B582B000AF78607B6800221A7046
S1131CE07B6800225A807B6800229A807B680022ED
S1131CF09A717B680022DA717B6801225A707B68D2
S1131D0007221A727B683F225A817B6801221A7368
S1131D107B680122DA817B6806221A82C046BD46AE
S1131D2002B080BD80B582B000AF0200FB1D1A7006
S1131D30034AFB1D1B781372C046BD4602B080BD2A
S1131D400004004080B582B000AF0200FB1D1A7091
S1131D50BB1D0A1C1A70FB1D1B78012B08D0022B1B
S1131D600BD0002B0ED10B4ABB1D1B7853720BE01A
S1131D70084ABB1D1B78937206E0064ABB1D1B78FC
S1131D80D37201E0172300E000231800BD4602B01F
S1131D9080BDC0460004004080B582B000AF0200A0
S1131DA0FB1D1A70084AFB1D1B780F210B40D9B28A
S1131DB053680F20014049001E2083430B435360A6
S1131DC0C046BD4602B080BD0040004180B500AFB2
S1131DD0C046044BDB6810221340FAD0C046BD460F
S1131DE080BDC0460008004080B500AF0C4B022205
S1131DF09A840C4B98470A4A0B4B9B68D362084A57
S1131E00094B5B689362064B00229A84054B984702
S1131E10034A054B1B689BB29384C046BD4680BDF4
S1131E2000080040CD1D0000A800002080B582B04D
S1131E3000AF0200FB1D1A70FB1D1B78082B41D854
S1131E409A00234BD3181B689F46224B1B693AE028
S1131E50214B1B6A9B059B0FDBB21A001F4BD3401F
S1131E6031E080231B022EE080231B022BE0194B60
S1131E705B6928E0174B1B680222134001D1002341
S1131E8021E0174B9847134B1B6824221340042B63
S1131E9009D10020134B984702000E4B9B681B048A
S1131EA01B0C53430FE0104B0DE00B4A5023D35C43
S1131EB0DBB21A000423134001D1002303E0054BD5
S1131EC0DB6800E000231800BD4602B080BDC046B8
S1131ED0DC310000A80000200008004000127A0055
S1131EE0CD1D000089290000006CDC0280B584B09F
S1131EF000AF78601A4B1B6AFB607B681B781A1C66
S1131F0003231340DAB20D23FB1803210A40100007
S1131F101A7803218A43111C021C0A431A707B6835
S1131F209A780C23FB18D0011A787F210A40111CDF
S1131F30021C0A431A707B685A780C23FB1801218F
S1131F400A4090011A7840218A43111C021C0A435A
S1131F501A70034BFA681A62C046BD4604B080BDCD
S1131F600008004080B584B000AF7860434A0C2379
S1131F70FB18928A1A807B685B781A1C072313402B
S1131F80DAB20C23FB1807210A4010005A78072103
S1131F908A43111C021C0A435A707B681B78002B6D
S1131FA006D10C23FB181A7804210A431A7005E0A1
S1131FB00C23FB181A7804218A431A707B689A78D8
S1131FC00C23FB1801210A4050011A7820218A436E
S1131FD0111C021C0A431A707B68DA780C23FB1864
S1131FE001210A4010011A7810218A43111C021C95
S1131FF00A431A707B681A790C23FB1801210A40E2
S1132000D0001A7808218A43111C021C0A431A7052
S11320107B685A7B0C23FB18D0011A787F210A4075
S1132020111C021C0A431A707B681A7B0C23FB18D0
S113203001210A4090011A7840218A43111C021C94
S11320400A431A707B689A7B0C23FB1801210A400F
S113205010015A7810218A43111C021C0A435A7039
S11320607B689A68064B5A61044A0C23FB181B8848
S11320709382C046BD4604B080BDC04600080040FF
S1132080A800002080B582B000AF78607B681B7A1E
S11320909B021B041A0C7B685B899B059B0D1A43EE
S11320A02A4B5A607B689A797B68DB791343DBB2ED
S11320B01A007B685B8813437A6892881A437B68AA
S11320C05B78DB011A43214B1A607B681B78042B75
S11320D016D17B681B7B9B061A007B68DB891B047B
S11320E019001B4B0B4013437A68128A1A43174B8F
S11320F09A60164B1B687A6812781A43134B1A605D
S11321007B681B78202B1CD17B681B7B9B061A00E9
S11321107B68DB891B0419000D4B0B4013437A6861
S1132120128A1A43094B9A60084B1B687A68127822
S113213004210A43D2B213438022D2001A43034B30
S11321401A60C046BD4602B080BDC046A80000204B
S11321500000FF0380B582B000AF0200FB1D1A70BF
S1132160FB1D1B78082B3BD89A00214BD3181B6806
S11321709F46204B1F4A126A02210A431A62002317
S113218031E01C4B1B4A926902210A439A6129E0FF
S1132190184A184B1B8A9BB202210B439BB2138231
S11321A020E0144A134B9B8A9BB202210B439BB23F
S11321B0938217E0104B1B6802221A430E4B1A60DD
S11321C00E4B98470EE00B4A0A494423CB5CDBB222
S11321D002210B43D9B24423D15403E0002302E08B
S11321E0172300E000231800BD4602B080BDC0469E
S11321F00032000000080040A8000020E91D000093
S113220080B584B000AF0200FB1D1A700023FB6090
S1132210FB1D1B78082B21D89A00184BD3181B6878
S11322209F460823FB601BE00423FB6018E00123A6
S1132230FB6015E00223FB6012E0D023FB600FE09B
S11322400F4A5023D35CDBB21A0003231340033B31
S11322505A425341DBB20CE001230AE0002308E0B8
S1132260074BDB68FA681A40FB68D31A5A42534199
S1132270DBB21800BD4604B080BDC0462432000065
S11322800008004080B582B000AF3B0002221A7003
S113229000237B6009E07B68DBB23A001100180080
S11322A0054B98477B6801337B607B68242BF2D90C
S11322B0C046BD4602B080BD6528000080B5AAB006
S11322C000AF874BC222D2009A600220854B984708
S11322D0854B98479423FB181800844B9847942304
S11322E0FB18802212029A609423FB1800221A70B1
S11322F09423FB1803225A709423FB1800229A702B
S11323009423FB180022DA709423FB1801221A711B
S11323109423FB1800225A739423FB1800221A7387
S11323209423FB181800724B98470520714B98476B
S1132330C0460520704B984703001A000123534000
S1132340DBB2002BF5D1664A938A80210B4393823A
S11323508023FB181800694B98478023FB1804223C
S11323601A708023FB1800225A70654B1B689B0E61
S1132370A422BA181360A423FB181B683F2B03D1B3
S11323801F23A422BA181360A423FB181B68DAB213
S11323908023FB181A728023FB1800225A808023A2
S11323A0FB180022DA718023FB1800229A71802323
S11323B0FB1800229A808023FB18524A1A82802339
S11323C0FB1807221A738023FB183F22DA8180232B
S11323D0FB1818004C4B98477C23FB1818004B4BF8
S11323E098477C23FB1800221A707C23FB180122D7
S11323F09A707C23FB1800225A707C23FB18180067
S1132400434B984706203B4B9847424B98476423DD
S1132410FB181800404B98476423FB1805221A70D8
S11324206423FB1801225A606423FB1800221A72E9
S11324306423FB1800225A726423FB18190001203C
S1132440364B98470120364B98470C23FB1818004D
S1132450344B98470C23FB1801221A700C23FB18E9
S113246019000020304B98470020304B9847072034
S1132470204B9847C04607201F4B984703001A007B
S113248001235340DBB2002BF5D10020284B9847A1
S113249000210020274B984700210120254B984715
S11324A000210220234B98473B0018001A4B984701
S11324B03B0007221A703B0001225A603B000022B5
S11324C01A723B0000225A723B0019000020134B81
S11324D098470020124B9847C046BD462AB080BD9D
S11324E000080040991D000085220000691C0000BE
S11324F0651F00005521000001220000D31C0000CC
S113250024608000B905000085200000B11C000093
S1132510ED1E0000DD250000251C00000D26000036
S113252031270000531C000065280000A928000082
S1132530251D0000451D000080B582B000AF0200DB
S11325403960FB1D1A70FB1D1B78012B0AD0022B6E
S11325500FD0002B14D10E4B0D4A91693A680A43EF
S11325609A610FE00A4B0A4AD1693A680A43DA6170
S113257008E0074B064A116A3A680A431A6201E006
S1132580172300E000231800BD4602B080BDC046FA
S11325900004004080B500AF024B9847C046BD46DA
S11325A080BDC046BD19000080B500AF024B9847FE
S11325B0C046BD4680BDC046111A000080B500AFBC
S11325C0054B5B78DBB25BB2002B01DA012300E040
S11325D000231800BD4680BD000C004080B500AF4C
S11325E008210020074B9847074B01221A70C04668
S11325F0054B1B78DBB21A0001231340F8D1C04607
S1132600BD4680BD39250000000C004080B586B071
S113261000AF02003960FB1D1A70FB1D1B787B6143
S1132620FB1D1B783B613B681B781B021A007B690E
S113263013437B613B685B78002B04D07B69802269
S1132640D20213437B613B685B7A002B04D07B6925
S11326508022120313437B613B685B68012B2CD9F6
S11326603B685A683B685B68013B13401AD10023FE
S1132670FB600223BB6005E0FB680133FB60BB68C1
S11326805B00BB603B685A68BB689A42F4D8FB683D
S11326901B023A6913433B617B6980225203134353
S11326A07B610AE03B685B681B023A6913433B6148
S11326B07B698022920213437B613B681B7A002B67
S11326C004D07B698022920313437B61C046134B81
S11326D09847031EFBD1124B9847124AFB1D1B78E7
S11326E01370C0460D4B9847031EFBD10E4B3A693D
S11326F09A60C046094B9847031EFBD10A4B0A4A0D
S113270051688022520211407A690A435A60074B89
S11327109847C046BD4606B080BDC046BD250000F2
S113272095250000080C0040000C0040A92500007D
S113273080B582B000AF0200FB1D1A70C0460E4B7C
S11327409847031EFBD10D4B98470D4AFB1D1B7880
S11327501370C046084B9847031EFBD1094B094A26
S11327605268802149020A435A60074B9847C04681
S1132770BD4602B080BDC046BD25000095250000C1
S1132780040C0040000C0040A925000080B586B070
S113279000AF0200FB1D1A70C0462A4B9847031E67
S11327A0FBD1294B9847294AFB1D1B781370C0465F
S11327B0244B9847031EFBD1254B5B68DB04DB0EDF
S11327C0DBB21800234B984703007B611F4AFB1DB3
S11327D01B7813701E4B5B68DB02DB0FDAB213232A
S11327E0FB181A701C4AFB1D1B781370C046154B4E
S11327F09847031EFBD1164B9B681B021B0C9BB214
S1132800FB60164B98471323FB181B78002B09D148
S1132810FB68012B06D9124BF968786998470300C5
S11328207B610AE01323FB181B78002B05D0FB689F
S113283001337A69DA4013007B617B691800BD4675
S113284006B080BDBD25000095250000040C0040A5
S1132850000C00402D1E0000080C0040A9250000BB
S1132860012F000080B584B000AF02003960FB1D69
S11328701A70FB1D1B78FB603B681B781B021A0057
S1132880FB681343FB60FB1D1B781800044B98473F
S1132890044BFA6892B25A80C046BD4604B080BD6B
S11328A0F1280000000C004080B582B000AF0200A7
S11328B0FB1D1A700A4B98470A4AFB1D1B781370BC
S11328C00949094B5B889BB28022D20113439BB216
S11328D04B80064B9847C046BD4602B080BDC046FB
S11328E095250000020C0040000C0040A9250000C2
S11328F080B584B000AF0200FB1D1A701C4B9847D2
S11329001C4AFB1D1B7813701B4B5B881B051B0F9C
S1132910DBB2FB60184A538818490B405380164AAF
S1132920154B5B889BB216490B409BB25380C04643
S1132930114B5B889BB21A008023DB011340F7D153
S11329400D4AFB68DBB2191C0F230B40D9B2538824
S1132950081C0F210140080208490B40191C031CE4
S11329600B435380074B9847C046BD4604B080BD17
S113297095250000020C0040000C0040FFF0FFFF12
S1132980FFBFFFFFA925000080B584B000AF02009F
S1132990FB1D1A700D4B98470D4AFB1D1B781370D5
S11329A00C4B5B881B051B0FDAB20F23FB181A7044
S11329B0094B98470F23FB181B781800074B9847BF
S11329C003001800BD4604B080BDC0469525000034
S11329D0020C0040000C0040A92500008D270000D7
S11329E080B584B000AF0200FB1D1A700F23FB18E2
S11329F0FA1D1278D2091A700E23FB18FA1D1278E8
S1132A0052091A700D4BBB600F23FB181B78002B67
S1132A100FD10F23FB181B789B0010229446BC4453
S1132A206344083B1A680E23FB181B78DB01D31898
S1132A3000E000231800BD4604B080BD00440041FE
S1132A4080B588B000AFF860B9607A600023FB619C
S1132A507B68DB7801225340DBB2002B35D07B68E6
S1132A601B78802B0BD0FB69802252021343FB613D
S1132A707B681B781B061A00FB691343FB617B68A8
S1132A805B78002B03D07B685B78022B10D1FB6949
S1132A90802292021343FB617B689B78002B04D055
S1132AA0FB698022D2021343FB61FB68BA685A6057
S1132AB07B685B78012B03D07B685B78022B07D1A2
S1132AC0FB69224A1340FB6102E0FB68BA685A6062
S1132AD0BB681B041B0CBB61BB681B0C7B61BA6924
S1132AE0FB691343A022D2051A43FB689A627A69F0
S1132AF0FB691343D02212061A43FB689A627B686F
S1132B00DB7801225340DBB2002B1AD0FA69802310
S1132B10DB0213400AD07B689B78012B03D1FB684E
S1132B20BA689A6102E0FB68BA685A617B685B78AC
S1132B30012B03D07B685B78022B02D1FB68BA6857
S1132B409A60C046BD4608B080BDC046FFFFFBFF8B
S1132B5080B584B000AF02003960FB1D1A70FB1D04
S1132B601B7818000A4B98470300FB60FB1D1B7879
S1132B701F22134001229A401300BB603A68B968CF
S1132B80FB681800034B9847C046BD4604B080BD9F
S1132B90E1290000412A000080B500AFC046BD46CF
S1132BA080BD000080B500AF064B9847064B9847A0
S1132BB0064B9847064B9847064B9847C046BD4678
S1132BC080BDC046BD2200004D1B0000992B0000B3
S1132BD0992B0000992B000080B582B000AF2F4BD9
S1132BE07B602F4B3B607A683B689A420CD007E0CD
S1132BF03B681A1D3A607A68111D796012681A6080
S1132C003A68284B9A42F3D3274B3B6004E03B6875
S1132C101A1D3A6000221A603A68244B9A42F6D38D
S1132C20234B7B60234B7A68FF218A439A60224AB4
S1132C3090235B000221D150204AD37803218B4397
S1132C40191C02230B43D3701C4AD3780C218B43E9
S1132C50191C08230B43D370194A937B30218B43EF
S1132C60191C20230B439373154A937B0C218B432C
S1132C70191C08230B439373114A937B03218B4341
S1132C80191C02230B4393730E4A536880210B4390
S1132C9053600D4B98470D4B9847FEE7F032000008
S1132CA00000002068000020680000202C030020A1
S1132CB00000000000ED00E0007000410050004101
S1132CC000480041004000416D3000004D2E0000DE
S1132CD080B500AFFEE7000080B584B000AF786037
S1132CE00A4B1B68002B02D1084B094A1A60074B98
S1132CF01B68FB60054B1A687B68D218034B1A608B
S1132D00FB681800BD4604B080BDC046C00000206A
S1132D103023002080B584B000AF0200FB1D1A7080
S1132D200F23FB18FA1D1278D2091A700E23FB1810
S1132D30FA1D127852091A700D4BBB600F23FB1851
S1132D401B78002B0FD10F23FB181B789B0010223C
S1132D509446BC446344083B1A680E23FB181B7852
S1132D60DB01D31800E000231800BD4604B080BD89
S1132D700044004180B582B000AF0200FB1D1A7010
S1132D80FB1D1B781800034B984703001800BD4631
S1132D9002B080BD152D000080B584B000AF0200E4
S1132DA0FB1D1A70FB1D1B7818000B4B9847030082
S1132DB0FB60FB1D1B781F22134001229A40130065
S1132DC0BB60FB681B6ABA6813405A1E9341DBB2AE
S1132DD01800BD4604B080BD752D000080B584B0D8
S1132DE000AF0200FB1D1A70BB1D0A1C1A70FB1DEC
S1132DF01B7818000D4B98470300FB60FB1D1B78E4
S1132E001F22134001229A401300BB60BB1D1B7894
S1132E10002B03D0FB68BA689A6102E0FB68BA68C9
S1132E205A61C046BD4604B080BDC046752D000041
S1132E3080B500AF044B01221A70BFF35F8F62B6F6
S1132E40C046BD4680BDC0460000002090B589B094
S1132E5000AF1E4B98471E4B98471E4B98471E4B7E
S1132E6018001E4B98473B1D1D4A13CA13C313CAAF
S1132E7013C312681A6000201A4B98473A1D1A4B64
S1132E8019000020194B98470320164B9847184BFC
S1132E9019000020154B9847164B372219000420BF
S1132EA0124B98473720144B984703001A0001230C
S1132EB05340DBB2002B04D0002117200F4B98475E
S1132EC0F0E7012117200D4B9847EBE7A52B0000F5
S1132ED0450A0000312E000048320000B50A000007
S1132EE0B4320000310B000068320000510B0000C6
S1132EF06C3200008C320000992D0000DD2D0000A2
S1132F00002243088B4274D303098B425FD3030A24
S1132F108B4244D3030B8B4228D3030C8B420DD337
S1132F20FF22090212BA030C8B4202D312120902C5
S1132F3065D0030B8B4219D300E0090AC30B8B4203
S1132F4001D3CB03C01A5241830B8B4201D38B03B1
S1132F50C01A5241430B8B4201D34B03C01A524156
S1132F60030B8B4201D30B03C01A5241C30A8B4299
S1132F7001D3CB02C01A5241830A8B4201D38B0284
S1132F80C01A5241430A8B4201D34B02C01A524128
S1132F90030A8B4201D30B02C01A5241CDD2C3099A
S1132FA08B4201D3CB01C01A524183098B4201D316
S1132FB08B01C01A524143098B4201D34B01C01A01
S1132FC0524103098B4201D30B01C01A5241C30879
S1132FD08B4201D3CB00C01A524183088B4201D3E8
S1132FE08B00C01A524143088B4201D34B00C01AD4
S1132FF05241411A00D20146524110467047FFE740
S113300001B5002000F006F802BDC0460029F7D043
S113301076E770477047C046F0B5CE46474615047C
S11330202D0C2E0080B50704140C3F0C9946030C9C
S11330307E435D43674363437F19340CE4199C4624
S1133040A54203D980235B029846C4444B465143AE
S113305043433604360C250C24046544A41959183A
S1133060491920000CBC90469946F0BD70B5002665
S11330700C4D0D4C641BA410A64209D1002600F08F
S113308027F90A4D0A4C641BA410A64205D170BD51
S1133090B300EB5898470136EEE7B300EB58984776
S11330A00136F2E7DC320000DC320000DC320000E2
S11330B0E032000010B5034B0100186800F004F87A
S11330C010BDC04604000020032370B5CD1C9D43F1
S11330D0083506000C2D1ED20C25A9421DD830003F
S11330E000F069F8254A14682100002919D1244CFC
S11330F02368002B03D1300000F044F8206029003D
S1133100300000F03FF8431C2CD10C233000336016
S113311000F052F803E0002DDFDA0C2333600020C6
S113312070BD0B685B1B1AD40B2B03D90B60CC1836
S1133130256003E08C420ED163681360300000F018
S11331403BF8200007220B30231D9043C31AE7D01D
S11331505A42E250E4E74B6863600C00EEE70C006F
S11331604968C2E70323C41C9C43A042E0D0211A4F
S1133170300000F007F8431CDAD1C6E7C400002091
S1133180C8000020002370B5064C05000800236029
S1133190FFF7A2FD431C03D12368002B00D02B6052
S11331A070BDC046280300200023C25C0133002AFE
S11331B0FBD1581E7047704770470000000800425A
S11331C0000C0042001000420014004200180042AB
S11331D0001C0042090A0B0C0D0E00004A1E0000E0
S11331E0C41E0000C41E0000681E0000621E000011
S11331F06E1E0000501E0000741E0000AA1E000077
S113320090210000E0210000E0210000DC2100000A
S113321082210000A221000072210000B4210000DC
S1133220C62100002E2200005C2200005C22000067
S1133230582200002822000034220000222200002C
S11332403A22000040220000455345353136202DF6
S113325020434C4920616E64204465627567204CAC
S11332606F676765720D0A0025730000506572660A
S11332706F726D696E672054656D706572617475E7
S113328072652054657374850D0A00004572726F6F
S113329072212054656D7065726174757265206F5A
S11332A07665722025642044656772656573210D17
S11332B00A000000434C49207374617274657220E3
S11332C0636F6465202D204553453531360D0A0062
S11332D0F8B5C046F8BC08BC9E467047DD00000047
S11332E0F8B5C046F8BC08BC9E467047B50000005F
S11332F001000000080000200000000000000000A1
S113330000000000000000000000000000000000B9
S113331000000000000000000000000000000000A9
S11333200000000000000000000000000000000099
S11333300000000000000000000000000000000089
S11333400000000000000000000000000000000079
S10B3350000000000000000071
S9032BD9F8
